:020000020000FC
:200000000000000000000000000000000000000000000000000000000000000000000000E0
:2000200004EDFFDE1500C0DF150240D8150380D81504C0D8150500D9150640D9150780D952
:200040001508C0D97A300B00150900DA150A40DA150B80DA150CC0DA150D00DB150E40DB94
:20006000150F80DB1510C0DB151140D904FFFFEB1512C0DB3A3109004C00802826030010B2
:2000800026020020C00F000106070000151240DF17FFBFE804FF3FE9401C00011E02001080
:2000A00004FFFFEB1512C0DB171140D9171240DF1700C0DF7A700128170240D8170380D89C
:2000C0001704C0D8170500D9170640D9170780D91708C0D9170900DA170A40DA170B80DA62
:2000E000170CC0DA170D00DB170E40DB170F80DB1710C0DB0413C0DE3A0880EF04F9FFDE81
:200100001506C0DF150500DF040500DF3A8801003A31050015FCBFE017FCBFE015FFBFE0FC
:2001200015FD3FE04400800015FEBFE017FFFFE017FEBFE03A7084182611001017FDBFE02F
:20014000FA900610740080003A8885181787C51017FDBFE0FA900810740080003A88852089
:20016000178885103A8809103AE83E183A8801003A31050015FBBFE017FBBFE00607000058
:2001800017FEBFE03A88851015FEBFE017FDBFE04400801015FDBFE006E43F0015FFBFE08E
:2001A00017FFBFE01EDE3F103A8801003A8801003A8837E01701C0DF170000DF0402C0DE8F
:2001C0003A2800F804FBFFDE1504C0DF150300DF040300DF15FD3FE1C4FFBF0015FFBFE0ED
:2001E00015FE3FE01723A0D0260700101723A0D017FFFFE017FEBFE117FD7FE13A8809183B
:200200003AE83E10060200003AA03D003A8805003A8837E01701C0DF170000DF0402C0DE5E
:200220003A2800F87400C0061400E0DE740080061407A5D674008000141D85107400C000DA
:2002400014C7C5182603C010150000100401801036FDFF104077030106FF3F0004F6FFDE1B
:200260001509C0DF150800DF040800DFC4FFBF0085FFBFE034040001045D1A21000103015B
:2002800044008000C5FFBFE0061D0000C3FFBFE03A88091000C2020115FEBFE017FEBFE0AD
:2002A0001700801026130010C3FFBFE03A880B103404000104661A2100F2020117FEBFE089
:2002C00003018010CC3F8010BA900610340480003A88851817599A103A880B103404000148
:2002E00004691A2100F2020117FEBFE00301801085FFBFE0C3FFBFE044008010C5FFBFE05E
:20030000C3FFBFE0300280101EE03F100301A0D0CC3F00114316A0D0CC3F801084FDFFE019
:200320001504C0D84400C0001503C0D8150280D8150100D8150000D88400C00144288001DC
:200340003A880B0080E40101C5FDBFE0C3FDBFE02609001034040001046B1A2100F2020193
:20036000C3FDBFE03A880B103404000104721A2100F20201060900003404000104741A2167
:2003800000F2020183FDBFE0CC3F80103A880B103404000104721A2100F2020134040001B9
:2003A00004781A2100F202010301A0D0CC3F00114316A0D0CC3F801084FDFFE01504C0D88C
:2003C0004400C0001503C0D8150280D8150100D8150000D8C400C001442880013A880B00E0
:2003E00080E40101C5FDBFE0C3FDBFE02609001034040001047B1A2100F20201C3FDBFE051
:200400003A880B103404000104721A2100F202010606000083FDBFE0CC3F80103A880B107D
:200420003404000104821A2100F2020183FFBFE03A8837E01701C0DF170000DF0402C0DE82
:200440003A2800F804FEFFDE150100DF040100DF15FF3FE1376CC0004400000117FFBFE0F9
:200460003A9884203AB08418356C80003A8801003A8837E0170000DF0401C0DE3A2800F8D0
:2004800004FEFFDE150100DF040100DF15FF3FE1376CC0004400000117FFBFE03A9884209D
:2004A0003A3084003A708418356C80003A8801003A8837E0170000DF0401C0DE3A2800F858
:2004C00004FCFFDE1503C0DF150200DF040200DF3A88052005FEBFE0C5FF3FE085FF3FE09E
:2004E000377080000DFFBFE007FEBFE00E060010C40200014044000103FEBFE03AC88500EF
:2005000005FEBFE006020000C40200010048000103FEBFE0C4188010CC3F8010F0318010C9
:200520001E030010440300014044000106020000440300010048000107FEBFE00419400122
:200540003A880910C0D5020105FEBFE007FEBFE0840240013A880910C0CD0201C5FFBFE04D
:2005600007FEBFE0840240013A880910C0D5020185FFBFE00BFFBFE0CC3F80100DFFBFE08B
:20058000C3FFBFE03A9304103A8807100BFFBFE03AB084180DFFBFE083FFBFE03A92041065
:2005A0003A8807100BFFBFE03AB084180DFFBFE00BFFBFE0357080003A8801003A8837E01E
:2005C0001701C0DF170000DF0402C0DE3A2800F804FBFFDE1504C0DF150300DF040300DFFF
:2005E0003A88052005FDBFE0C5FF3FE085FF3FE03770800015FEBFE007FDBFE00E0600104D
:20060000840200014044000103FDBFE03AC8850005FDBFE00602000084020001004800012F
:2006200003FDBFE0C4188010CC3F8010F03180101E0300100403000140440001060200009D
:20064000040300010048000107FDBFE0041940013A880910C0D5020105FDBFE007FDBFE091
:20066000840240013A880910C0CD0201C5FFBFE007FDBFE0840240013A880910C0D5020108
:2006800085FFBFE007FDBFE0840240013A880910C0CD0201C5FFBFE007FDBFE08402400195
:2006A0003A880910C0D5020185FFBFE017FEBFE00CC0BF1015FEBFE0C3FFBFE03A91041063
:2006C0003A88071017FEBFE03AB0C41015FEBFE083FFBFE017FEFFE03AB0841815FEBFE0D0
:2006E00017FEBFE0357080003A8801003A8837E01701C0DF170000DF0402C0DE3A2800F8DA
:2007000004FEFFDE150100DF040100DF3A8805200DFFBFE00BFFBFE0358080003A880100EE
:200720003A8837E0170000DF0401C0DE3A2800F804FEFFDE150100DF040100DF15FF3FE002
:20074000060700001700E0D017FFBFE03A8885180500001017FFBFE04400801015FFBFE060
:2007600017FFBFE0105882101EF63F103A8801003A8837E0170000DF0401C0DE3A2800F8D8
:2007800004E6FFDE1519C0DF151800DF151700DC041800DFC5FE3FE085FE3FE034040001F9
:2007A00004841A210001030180C5010134040001048B1A21000103010041020144919B006E
:2007C0008DEEBFE0045D99000DEFBFE0841C88008DEFBFE084999C000DF0BFE044D898001E
:2007E0008DF0BFE0045D98000DF1BFE0041B88008DF1BFE0C45C99000DF2BFE0045B990034
:200800008DF2BFE0C4189D000DF3BFE044DA9B008DF3BFE0849B8B000DF4BFE085F43FE0E8
:20082000C4E8FFE03404800004A09A10C40500013A880D203A880B103A880918C0EB020100
:20084000C4FFBF0035608000C4FFBF0035008000840B000100F70201C0CE010180490201E4
:2008600000C00201CC3F8010181080101EFF0010C3FEBFE01E07001044008000C5FEBFE07A
:200880004402000140440001C025000145FEBFE006EF3F0043FEBFE0580080101EEC3F106F
:2008A0001702A0D017008010980080101E0600103A88050035688000C4FFBF003560800031
:2008C000C4FFBF0035008000375C800015F9BFE0C4F4BFE03A88091080570101C5F8BFE0BA
:2008E000C3F8BFE01801801026000110C3F8BFE0260900103404000104901A2100F2020128
:20090000C3F8BFE03A880B103404000104721A2100F2020106F600003404000104921A21BB
:2009200000F2020115FC3FE0060C000017FCBFE004FFFFE03A88851843F6BF10CC3F8010EA
:200940003A880B103404000104951A2100F2020117FCBFE04400801015FCBFE017FCBFE0D0
:20096000900180101EF13F108BFDBFE01E03001043F5BFE0CC3F80108DFDBFE017F9BFE056
:200980001E57001015FB3FE006120000170020D40414400117FB3FE140E902013A88858002
:2009A0008407000117FBFFE03AC8C7203A88C5103A88091084EEBFE04406C0003A880D185D
:2009C0003A880B10C0EB020117FBBFE04400801015FBBFE017FBBFE0900780101EEB3F1028
:2009E0008BFDBFE01E3A001043F5BFE0CC3F80102637001043F5BFE0CC3F801084F8BF10CC
:200A0000A802C0101E300018BA900610340480003A888518178782103A6800105C0A100027
:200A2000700A1000840A1000980A1000B00A1000C80A1000C80A1000C80A1000C80A10008A
:200A4000440A1000F4FFBF0004CD8C1035608000C4FB890035008000061B00008466A60056
:200A6000356080005466A6003500800006160000443D9200356080003A880500350080008C
:200A800006110000C45B9000356080009443A30035008000060C0000F4FFBF0084668E1000
:200AA000356080003A8805003500800006060000F4FFBF00847A911035608000C4168C00CD
:200AC000350080003A880100440080003568800043F5BFE0CC3F80108DFDBFE006500000CC
:200AE00017F9BFE0580080101E4D001015FA3FE006120000170020D40414400117FA3FE109
:200B000040E902013A8885808407000117FAFFE03AC8C7203A88C5103A880910C4E8BFE0C0
:200B2000C405C0003A880D183A880B10C0EB020117FABFE04400801015FABFE017FABFE0D8
:200B4000900780101EEB3F108BFDBFE01E31001043F5BFE0CC3F8010262E001043F5BFE0E3
:200B6000CC3F801084F8BF10A802C0101E270018BA900610340480003A88851817E18210B7
:200B80003A680010B80B1000C40B1000D00B1000DC0B1000E80B1000F40B1000000C1000E1
:200BA0000C0C10000C0C1000AC0B10003A8805003564800006150000440080003564800046
:200BC000061200008400800035648000060F0000C400800035648000060C000004018000D7
:200BE0003564800006090000440180003564800006060000840180003564800006030000BC
:200C0000C4018000356480003A880100440080003568800043F5BFE0CC3F80108DFDBFE037
:200C200043F5BFE0CC3F80103A8809100070000143F5BFE0CC3F80101C20801004E0BF1005
:200C40003A880910004C000183F5BFE0CC3F80101C20801004E0BF103A880910005D000102
:200C60008402000100F7020106F93E0000C00201CC3F8010D83F80101E0A001083FEBFE059
:200C80001EF33E104400800085FEBFE044020001004800013404000104961A21000103016C
:200CA00006EB3E0034040001049A1A2100F2020100C00201CC3F80103A880B10340400018A
:200CC000049F1A2100F20201C3FEBFE026030010C5FE3FE080C501010041020185FE3FE099
:200CE000440200010048000106D93E003A88010006D73E0004F2FFDE150DC0DF150C00DFD5
:200D0000040C00DF3A88052015F97FE105FABFE0740080000435851015FEBFE07400800089
:200D20000435851015FDBFE003FAFFE07400800004358510150480D844028000150380D8EF
:200D4000150200D884008000150180D8150000D88401C001042080013A880B003A880918AA
:200D600080E40101C5FCBFE0C3FCBFE0260200103A88050006D3000017FEBFE08B008010A8
:200D8000CCFFBF10704080101E030010044080008DFFBFE00603000017FEBFE08B00801081
:200DA0008DFFBFE003FA3FE18BFFFFE07400800004358510150480D81503C0D8150200D8B0
:200DC00084008000150180D8150000D88401C001042080013A880B0080E40101C5FCBFE036
:200DE000C3FCBFE0260200103A88050006B5000017FEBFE04301801085FCBFE006AA000083
:200E000017FEBFE043008010CC3F8010200180101E09001017FEBFE003008010CC3F8010E6
:200E200017FDFFE03A88851815FDBFE017FDBFE015FEBFE0069C000017FEBFE04301801020
:200E400045FCBFE017FEBFE08301801005FCBFE017FEBFE0C3018010C5FBBFE043FCBFE005
:200E6000D80080101E8E001003FCBFE0580080101E8B0010C3FBBFE0980080101E880010D4
:200E800003FABFE0FA9008108400C000740080003A8885200576C51003FABFE0FA900610E9
:200EA000740080003A888518177585108B00801085FBBFE0C04B010103FABFE0FA90081039
:200EC0007400C000042BC518740080003A8885201575C51003FABFE0FA90061074008000E8
:200EE0003A8885181775851083FBFFE08D00C01017FEBFE0830080104516A0D003FABFE08A
:200F00000516A0D017FEBFE003008010CC3F801017FDFFE03A88851815FDBFE017FDBFE0AE
:200F200015FEBFE00657000017FEBFE043008010CC3F8010600180101E09001017FEBFE0A4
:200F400003008010CC3F801017FDFFE03A88851815FDBFE017FDBFE015FEBFE006490000AC
:200F600003FABFE0FA900610740080003A888518177585100402801017FEFFE08300C018DC
:200F80000500C01003FABFE0FA900610740080003A888518177585100402801017FEFFE042
:200FA000C300C0184500C01003FABFE0FA900610740080003A88851817758510040280103B
:200FC00017FEFFE00B01C0188D00C01003FABFE0FA900610740080003A888518177585102C
:200FE0000402801017FEFFE08301C0180501C01003FAFFE083FCBFE0150400D8150300D85A
:20100000150200D8150100D8150080D84402C0013A880D003A880B003A88091880E401019A
:20102000C5FCBFE0C3FCBFE0260200103A8805000624000003FAFFE04316A0D0CC3F801089
:20104000150400D8150300D8150280D8150100D8150000D8C402C001440880013A880B0044
:201060003A88091880E40101C5FCBFE0C3FCBFE0260200103A88050006120000440080008E
:20108000061000008BFFFFE074008000043585103A88851817FDFFE036A3BF180602000005
:2010A0003A880500060700008BFFFFE074008000043585103A88851817FDFFE03650BF1882
:2010C0003A8805003A8837E01701C0DF170000DF0402C0DE3A2800F804F2FFDE150DC0DF31
:2010E000150C00DF040C00DF3A88052015F97FE105FABFE0740080000435851015FEBFE09A
:20110000740080000435851015FDBFE003FAFFE07400800004358510150480D84402800087
:20112000150380D8150200D884008000150180D8150000D88401C001042080013A880B0039
:201140003A88091880E40101C5FCBFE0C3FCBFE0260200103A88050006D3000017FEBFE0FC
:201160008B008010CCFFBF10704080101E030010044080008DFFBFE00603000017FEBFE09D
:201180008B0080108DFFBFE003FA3FE18BFFFFE07400800004358510150480D81503C0D8A0
:2011A000150200D884008000150180D8150000D88401C001042080013A880B0080E40101C3
:2011C000C5FCBFE0C3FCBFE0260200103A88050006B5000017FEBFE04301801085FCBFE0EF
:2011E00006AA000017FEBFE043008010CC3F8010200180101E09001017FEBFE003008010EE
:20120000CC3F801017FDFFE03A88851815FDBFE017FDBFE015FEBFE0069C000017FEBFE075
:201220004301801045FCBFE017FEBFE08301801005FCBFE017FEBFE0C3018010C5FBBFE02B
:2012400043FCBFE0D80080101E8E001003FCBFE0580080101E8B0010C3FBBFE05800801008
:201260001E88001003FABFE0FA9008104400C000740080003A8885200576C51003FABFE02F
:20128000FA900610740080003A888518177585108B00801085FBBFE0C04B010103FABFE057
:2012A000FA9008107400C000042BC518740080003A8885201575C51003FABFE0FA90061056
:2012C000740080003A8885181775851083FBFFE08D00C01017FEBFE0830080104516A0D04E
:2012E00003FABFE00516A0D017FEBFE003008010CC3F801017FDFFE03A88851815FDBFE0E2
:2013000017FDBFE015FEBFE00657000017FEBFE043008010CC3F8010600180101E090010C1
:2013200017FEBFE003008010CC3F801017FDFFE03A88851815FDBFE017FDBFE015FEBFE063
:201340000649000003FABFE0FA900610740080003A888518177585100402801017FEFFE004
:201360008300C0180500C01003FABFE0FA900610740080003A8885181775851004028010F7
:2013800017FEFFE0C300C0184500C01003FABFE0FA900610740080003A88851817758510F9
:2013A0000402801017FEFFE00B01C0188D00C01003FABFE0FA900610740080003A888518D3
:2013C000177585100402801017FEFFE08301C0180501C01003FAFFE083FCBFE0150400D845
:2013E000150300D8150200D8150100D8150080D84402C0013A880D003A880B003A8809182D
:2014000080E40101C5FCBFE0C3FCBFE0260200103A8805000624000003FAFFE04316A0D0DA
:20142000CC3F8010150400D8150300D8150280D8150100D8150000D8C402C0014408800192
:201440003A880B003A88091880E40101C5FCBFE0C3FCBFE0260200103A88050006120000A1
:2014600044008000061000008BFFFFE074008000043585103A88851817FDFFE036A3BF1865
:20148000060200003A880500060700008BFFFFE074008000043585103A88851817FDFFE0F3
:2014A0003650BF183A8805003A8837E01701C0DF170000DF0402C0DE3A2800F804FFFFDEA4
:2014C000150000DF3A8839D80410C00074008000452EC5100404C00074008000852EC510F1
:2014E0003A8801003A8837E0170000DF0401C0DE3A2800F804FBFFDE1504C0DF150300DFD2
:20150000040300DF15FE3FE10316A0D0CC3F80103A880B1004380001C06D01010316A0D0BC
:20152000CC3F00110316A0D0CC3F8010FA900610740080003A8885181775851004028010C1
:201540008B008010CC3F8010150080D817FEFFE1040280014400400180280201C5FFBFE059
:20156000C3FFBFE03A8837E01701C0DF170000DF0402C0DE3A2800F804FBFFDE1504C0DFF2
:20158000150300DF040300DF15FE3FE10316A0D0CC3F80103A880B1004380001C06D0101CE
:2015A0000316A0D0CC3F00110316A0D0CC3F8010FA900610740080003A888518177585104E
:2015C000040280108B008010CC3F8010150080D817FEFFE1040280014400400180280201A6
:2015E000C5FFBFE0C3FFBFE03A8837E01701C0DF170000DF0402C0DE3A2800F804FBFFDEC7
:20160000150400DF040400DF3A8805203A88072815FDBFE115FCFFE105FFBFE03A880518EE
:2016200005FEBFE03A8805003A8837E0170000DF0401C0DE3A2800F804FBFFDE150400DFA1
:20164000040400DF3A8805203A88072815FDBFE115FCFFE105FFBFE03A88051805FEBFE004
:201660003A8805003A8837E0170000DF0401C0DE3A2800F804FCFFDE150300DF040300DF1D
:201680003A8805203A8809283A88073005FFBFE03A88052005FEBFE03A88051805FDBFE0CB
:2016A0003A8801003A8837E0170000DF0401C0DE3A2800F804FEFFDE150100DF040100DFE3
:2016C0003A88052005FFBFE03A8801003A8837E0170000DF0401C0DE3A2800F804F8FFDE18
:2016E0001507C0DF150600DF040600DF3A8805203A88072805FEBFE03A88051805FDBFE052
:2017000003FEBFE08400801005FEBFE01703A0D03A88091004FEFFE044008000150280D8FA
:20172000150100D8150000D83A880F18440080013A880B004063040115FFBFE017FFBFE043
:201740000E0300103404000104A61A2100F202011703A0D03A88071004FDBFE0150200D863
:20176000150100D8150000D83A880F10440080013A880B003A8809184063040115FFBFE0DD
:2017800017FFBFE00E0300103404000104A61A2100F202013A8801003A8837E01701C0DF0D
:2017A000170000DF0402C0DE3A2800F804F7FFDE1508C0DF150700DF040700DF3A880520D5
:2017C0003A88072815FCBFE105FEBFE03A88051805FDBFE003FEBFE08400801005FEBFE0EF
:2017E0001703A0D03A88091004FEFFE044008000150280D8150100D8150000D83A880F18AC
:20180000440080013A880B004063040115FFBFE017FFBFE00E0300103404000104AD1A21E0
:2018200000F202011703A0D03A88071003FDBFE0150200D8150100D8150000D817FCFFE1F4
:201840003A880D103A880B003A8809184063040115FFBFE017FFBFE00E030010340400018F
:2018600004AD1A2100F2020103FDBFE017FCFFE03A8885183A8837E01701C0DF170000DF11
:201880000402C0DE3A2800F804F8FFDE1507C0DF150600DF040600DF3A88052005FDBFE04B
:2018A0001703A0D03A88091004FDFFE044008000150280D8150100D8150000D83A880F18EC
:2018C000440080013A880B004063040115FFBFE017FFBFE00E0300103404000104B41A2119
:2018E00000F202011703A0D03A880710150200D8C4FEBFE0150180D844008000150080D8A1
:201900003A880F003A880D003A880B003A8809184063040115FFBFE017FFBFE00E03001046
:201920003404000104B41A2100F20201C3FEBFE03A8837E01701C0DF170000DF0402C0DEFC
:201940003A2800F804F7FFDE1508C0DF150700DF040700DF3A8805203A88072815FCBFE12B
:2019600005FEBFE03A88051805FDBFE01703A0D03A88091004FEFFE044008000150280D8CC
:20198000150100D8150000D83A880F18440080013A880B004063040115FFBFE017FFBFE0E1
:2019A0000E0300103404000104BA1A2100F202011703A0D03A88091003FDBFE0150200D8EC
:2019C00017FCFFE01501C0D8150080D83A880F003A880D003A880B004063040115FFBFE032
:2019E00017FFBFE00E0300103404000104BA1A2100F2020103FDBFE017FCFFE03A888518FA
:201A00003A8837E01701C0DF170000DF0402C0DE3A2800F804FDFFDE1502C0DF150100DFB9
:201A2000040100DF3A88050035748000F4030001049010214098030144008000357480004C
:201A4000C5FF3FE004084001041E0001C06D01013A880B00041E0001C06D010106080000D7
:201A6000C3FFBFE044008010C5FFBFE0C3FFBFE01E0300103404000104C11A2100F202010E
:201A8000041A000180880101CC3F80104C00801026F33F103A8801003A8837E01701C0DFEB
:201AA000170000DF0402C0DE3A2800F804FEFFDE150100DF040100DF15FF3FE14400800082
:201AC0003A8837E0170000DF0401C0DE3A2800F804FDFFDE1502C0DF150100DF040100DFCD
:201AE000043E000180880101C5FFBFE0C3FFFFE004F0BF003A708418C5FFBFE0C3FFBFE0D8
:201B00002010C0101E2200184810C0101E020018263B0010064A00002020C0101E03001803
:201B2000203080101E330010064500000306A0D0CC3F8010E00480101E3E001004360001EA
:201B400080880101CC3F80108C0080101E0700104432400104360001C06D01013404000135
:201B600004C51A210001030106060000C432400104360001C06D01013404000104CB1A216C
:201B800000010301040480000506A0D0062900000306A0D0CC3F8010E00480101E27001031
:201BA0000436000180880101CC3F80108C0080101E070010C432400104360001C06D010153
:201BC0003404000104CB1A2100010301060600004432400104360001C06D01013404000157
:201BE00004C51A2100010301040480000506A0D006120000040180000506A0D006100000AB
:201C00000306A0D0CC3F80100C3C801026030010440080000506A0D006090000443240019A
:201C200004360001C06D0101C40080000506A0D0060300003A880100060100003A880100E5
:201C40003A8801003A8837E01701C0DF170000DF0402C0DE3A2800F804FEFFDE1501C0DFA9
:201C6000150000DF3A8839D88406400104220001C06D010140A101013A880900C0AA010162
:201C800004204001042E0001C06D010144000001C0AA01014434400104360001C06D0101A9
:201CA0000408400104340001C06D010104014001043A0001C06D010100AD010104084001BF
:201CC00004320001C06D01014400400104200001C06D01013A8801003A8837E01701C0DF72
:201CE000170000DF0402C0DE3A2800F804FEFFDE1501C0DF150000DF3A8839D8377C800062
:201D00001E0400103404000104D11A2100F2020180D4010137788000580080101E040010B4
:201D20003404000104D51A2100F2020140E101013A8801003A8837E01701C0DF170000DFF5
:201D40000402C0DE3A2800F804FDFFDE1502C0DF150100DF040100DFC5FF3FE004320001FE
:201D60008088010185FFBFE083FFBFE03A880B103404000104D91A2100F2020183FFBFE0D1
:201D80000C10801026030010C3FFBFE014108010C5FFBFE083FFBFE00C08801026040010E7
:201DA00000AD0101C3FFBFE014088010C5FFBFE083FFBFE00C028010260300103A880B003F
:201DC000040E0001C06D010183FFBFE04C008010260600100306A0D0440080100506A0D0C0
:201DE000C3FFBFE054008010C5FFBFE0C3FFBFE03A880B1004320001C06D01013A880100D4
:201E00003A8837E01701C0DF170000DF0402C0DE3A2800F804FDFFDE1502C0DF150100DFB5
:201E2000040100DF042C000180880101C5FFBFE03A8801003A8837E01701C0DF170000DFD7
:201E40000402C0DE3A2800F804F1FFDE150EC0DF150D00DF040D00DF3A8815203A8813280B
:201E60003A881130170240E1170300E11704C0E0170580E03A880D5005FBBFE13A880D481D
:201E800005FABFE13A880D4005F9BFE13A880D3805F8BFE105F77FE105F63FE10DF5FFE0FA
:201EA0000DF4BFE015FF3FE044008000C5FEBFE0170680E01E010010C5FE3FE003FBBFE0FE
:201EC0003A880B1004380001C06D010103F9BFE0CC3F80101C20801004E0BF100E020010E4
:201EE0004400800015FFBFE003F9BFE085FCBFE003F8BFE0C5FCBFE003F7BFE005FDBFE07C
:201F000003F6BFE045FDBFE00BF5BFE08DFDBFE00BF4BFE00DFEBFE084FCBFE03A880D103A
:201F20000402400104080001C07A010103FABFE03A880B10040400018010020185FEBFE0DA
:201F400083FEBFE02602001083FEBFE0060E0000C3FEBFE0BA9006100404A0D03A8885185E
:201F60001700801003FB3FE103FA7FE10BF4BFE117FFFFE01500C0D81706C0E13AE83E10D0
:201F800085FEBFE083FEBFE03A8837E01701C0DF170000DF0402C0DE3A2800F804F8FFDEA2
:201FA0001507C0DF150600DF040600DF3A8805203A8809283A88073015FBFFE105FEBFE01E
:201FC0003A88052005FDBFE03A8805180DFCBFE0170280E02626001003FEBFE0FA900610DD
:201FE000740080003A8885181775C51003FDBFE0FA9004103A8885180408C0008501C0106F
:2020000003FE3FE103FD7FE10BFCBFE103FEBFE0FA900610740080003A8885181775C510A4
:2020200003FDBFE0FA9004103A8885188B008010CC3F8010150080D817FBFFE18028020144
:20204000C5FFBFE0C3FFBFE026020010C3FFBFE00608000003FDBFE03A880B10042800016C
:2020600080100201C5FFBFE0C3FFBFE006010000C4FFBF003A8837E01701C0DF170000DFFA
:202080000402C0DE3A2800F804F9FFDE1506C0DF150500DF040500DF3A8805203A880928F3
:2020A0003A88073015FBFFE105FEBFE03A88052005FDBFE03A8805180DFCBFE0170280E00D
:2020C0002606001003FDBFE03A880B100428000180100201C5FFBFE00605000003FDBFE07B
:2020E0003A880B100420000180100201C5FFBFE0C3FFBFE03A8837E01701C0DF170000DF01
:202100000402C0DE3A2800F804F9FFDE1506C0DF150500DF040500DF3A8805203A88072874
:2021200005FCBFE03A88051805FBBFE01721A0D004FA40013A88091040E902013A880710BA
:202140001720A0D03A880B103A88091840DD020104E2841015FEBFE085FF3FE045FF3FE0C6
:2021600003FCFFE003FBBFE03AB08418CC3F80103A880B10043C0001C06D0101C4FFBF00F4
:20218000C5FFBFE0060D00000432000180880101C5FDBFE0C3FDBFE0CC3F80101C20801061
:2021A00004E0BF100E0500100420400104320001C06D0101C5FF3FE0060C00001721A0D0E1
:2021C00004FA40013A88091040E902013A8807101720A0D03A880B103A88091840DD020159
:2021E0003A88071017FEBFE036E7BF18C3FFBFE026020010C3FFBFE0061E0000043E0001FD
:2022000080880101CC038010C5FFBFE0C3FFBFE0180180101E07001043FFBFE044008010FE
:2022200045FFBFE043FFBFE0183280101E0B0010060F0000C3FFBFE0980380101E090010EF
:2022400083FFBFE04400801085FFBFE087FFBFE0D800801026050010060100003A880100D4
:2022600006BF3F003A880100060100003A880100C3FFBFE03A8837E01701C0DF170000DFE6
:202280000402C0DE3A2800F804F8FFDE1507C0DF150600DF040600DF3A8807203A880930E5
:2022A00015FBFFE1170280E005FEFFE03A88072805FDFFE03A8807200DFCFFE005FABFE092
:2022C0008DFF3FE003FEBFE0FA900610740080003A8885181775C51003FDBFE0FA90041022
:2022E0003A88851883018010CC3F80103A880B10043A0001C06D010103FDBFE03A880B1009
:202300003A8809008010020145FFBFE043FFBFE02602001043FFBFE006380000043200010D
:2023200080880101CC3F80100C0180101E02001004FCBF0006310000040C0001808801011A
:2023400005FFBFE003FFBFE017FBBFE13A880B10040200014094010115FBBFE004014001D8
:2023600004320001C06D010103FFBFE08BFFFFE03A8885188DFFBFE003FFFFE003FABFE0E6
:20238000360380188BFFFFE00BFCBFE036DABF18043E000180880101CC3F80100C048010EE
:2023A000260B001003FEBFE0FA900610740080003A8885181775C51003FDBFE0FA900410AB
:2023C0003A8885180408C0008501C010060A000003FEBFE0FA900610740080003A888518D9
:2023E0001775C51003FDBFE0FA9004103A8885180404C0008501C0103A8805003A8837E022
:202400001701C0DF170000DF0402C0DE3A2800F804FEFFDE150100DF040100DFC5FF3FE076
:20242000060D0000C3FFBFE0FA900610740080003A88851815750510C3FFBFE0FA90061095
:20244000740080003A88851805760510C3FFBFE044008010C5FFBFE0C3FFBFE0700280109E
:202460001EF03F100417E0D0740080001575C5108D1720D0041080004518A0D00404800064
:202480008518A0D03A8801003A8837E0170000DF0401C0DE3A2800F804B2FFDE154DC0DF0C
:2024A000154C00DF154B00DC044C00DF0306A0D0CC3F80100C3C80102008C0101E0E011848
:2024C0004808C0101E040018260A0010200480101E1A0010067501002010C0101E6801184B
:2024E000E03FC0101E680118200C80101E3D0110066E01000306A0D0CC3F8010E000C010ED
:202500001E0800182001C0101E0A0018580080101E5F011000410201C40080000506A0D0D3
:202520000605000004014001043A0001C06D0101060100003A880100065501000306A0D03D
:20254000CC3F801004FCBF10A801C0101E520118BA900610340480003A888518175989108F
:202560003A6800107C251000B4251000F02510001426100054261000682610001721A0D0D0
:2025800004FA40013A88091040E902013A8807101720A0D03A880B103A88091840DD020195
:2025A00004328010151AA0D0440480000506A0D006D000001721A0D004FA40013A880910DB
:2025C00040E902013A8807101720A0D03A880B103A88091840DD02013A880710171AA0D0F5
:2025E0002EC1C010840480000506A0D006BE00004400400104320001C06D01014400400165
:20260000043A0001C06D0101C40480000506A0D006B80000043A000180880101CC3F8010E7
:202620004C0080101EB2001004360001808801011402801085FEBFE083FEBFE03A880B10D4
:2026400004360001C06D0101040580000506A0D006A7000004320001808801014405800055
:202660000506A0D006A3000074008000177585100402C0008D00C01084F9BFE0150480D871
:2026800004028000150380D8150200D844008000150180D8150000D88401C001042080014B
:2026A0003A880B003A88090080E4010145FEBFE043FEBFE01E85001043FBFFE07400800096
:2026C00017758510CC3FC0188D00C01083F9BFE0CC3F801084F9FFE01504C0D8150380D866
:2026E000150200D844008000150180D8150000D88401C001042080013A880B003A88090049
:2027000080E4010145FEBFE003FDBFE0CC3F80102634001003FDBFE0CC3F801084B9FFE077
:202720001504C0D88400C0001503C0D84402C1001502C0D8C400C0001501C0D8150080D89F
:202740008401C001042080013A880B003A88090080E4010145FEBFE003FDBFE0CC3F801074
:2027600083B9FFE0CC3FC01884B93FE1150400D91503C0D84402C1001502C0D8C400C00022
:202780001501C0D8150080D88401C001042080013A880B003A88090080E4010145FEBFE053
:2027A00003FDBFE0CC3F001483B9BFE0CC3F80107AD00410C4FFBF10CC3FC01084B9BFE03E
:2027C000840080103A880B183A88091080C502013A880D103A880B803404000104DC1A215D
:2027E00000F2020143FDBFE0CC3F80102634001043FDBFE0CC3F801084B9FFE01504C0D8B9
:202800008400C0001503C0D84402C1001502C0D8C400C0001501C0D8150080D88401C00129
:20282000042080013A880B003A88090080E4010145FEBFE043FDBFE0CC3F801083B9FFE07E
:20284000CC3FC01884B93FE1150400D91503C0D84402C1001502C0D8C400C0001501C0D8AE
:20286000150080D88401C001042080013A880B003A88090080E4010145FEBFE043FDBFE041
:20288000CC3F001483B9BFE0CC3F80107AD00410C4FFBF10CC3FC01084B9BFE084008010E8
:2028A0003A880B183A88091080C502013A880D103A880B803404000104E21A2100F2020195
:2028C000040880000506A0D0060A000043FEBFE0451BA0D00306A0D00519A0D0C4FFBF00A8
:2028E0000506A0D0060300003A880100066A00003A8801000668000044008000C5FEBFE0CA
:20290000062A0000C3FEBFE0FA900610740080003A888518177585101E210010C3FEBFE064
:202920007400C0001775C518FA900810740080003A8885201575C510C3FEBFE0150400D84D
:20294000150300D8150200D8150100D8150080D84401C0013A880D003A880B003A880900D0
:2029600080E4010145FEBFE043FEBFE01E050010C3FEBFE0051BA0D0040C80000506A0D001
:20298000060D000043FEBFE0451BA0D00306A0D00519A0D0C4FFBF000506A0D00606000064
:2029A000C3FEBFE044008010C5FEBFE0C3FEBFE0300280101ED33F100306A0D0CC3F80100B
:2029C000180880101E36001084FFBF00451BA0D00306A0D00519A0D0C4FFBF000506A0D0CD
:2029E000062F0000C5FE3FE006170000C3FEFFE03A8805183A8885103A88C510BA900410D8
:202A00007400C0003A88C71017008018031BE0D0CC3FC0183A880B003A8809183AE83E1069
:202A200045FEBFE043FEBFE0580080101E030010041080000506A0D006060000C3FEBFE040
:202A400044008010C5FEBFE0C3FEBFE0300180101EE63F100306A0D0CC3F8010180C801004
:202A60001E11001044FFBF00451BA0D00306A0D00519A0D0C4FFBF000506A0D0060A000031
:202A80003A880100060900003A880100060700003A880100060500003A88010006030000FA
:202AA0003A880100060100003A8801003A88010004FFFFE61702C0DF170100DF170000DC3C
:202AC0000403C0DE3A2800F804FDFFDE150200DF040200DF3A88052015FE7FE105FFBFE041
:202AE0003A8805003A8837E0170000DF0401C0DE3A2800F804FBFFDE150400DF040400DF88
:202B00003A8805203A88072815FDBFE115FCFFE105FFBFE03A88051805FEBFE03A8805004F
:202B20003A8837E0170000DF0401C0DE3A2800F804FDFFDE150200DF040200DF3A88052029
:202B400015FE7FE105FFBFE03A8805003A8837E0170000DF0401C0DE3A2800F804FBFFDEF0
:202B6000150400DF040400DF3A8805203A88072815FDBFE115FCFFE105FFBFE03A88051879
:202B800005FEBFE03A8805003A8837E0170000DF0401C0DE3A2800F804FDFFDE150200DF2C
:202BA000040200DF3A88052015FE7FE105FFBFE03A8805003A8837E0170000DF0401C0DEFA
:202BC0003A2800F804FBFFDE150400DF040400DF3A8805203A88072815FDBFE115FCFFE165
:202BE00005FFBFE03A88051805FEBFE03A8805003A8837E0170000DF0401C0DE3A2800F81E
:202C000004FFFFDE150000DF3A8839D80306A0D03A8837E0170000DF0401C0DE3A2800F8C8
:202C200004FEFFDE150100DF040100DF3A88052005FFBFE003FFBFE0FA900610740080001D
:202C4000047585103A8885183A8837E0170000DF0401C0DE3A2800F804FCFFDE150300DF67
:202C6000040300DF15FE3FE13A88052805FDBFE0C5FF3FE0060D0000C3FFBFE03A888510FD
:202C80003A88071017FEBFE03A88C710C3FFBFE017FE3FE13A8885200300C0180500C01061
:202CA000C3FFBFE044008010C5FFBFE0C3FFFFE003FDBFE036F0BF1803FDBFE017FEFFE0AC
:202CC0003A8885180500001017FEBFE03A8837E0170000DF0401C0DE3A2800F8161A0020B0
:202CE0003A880F000E0200283AC84B015C00C0393A880D204400C0002E0900290408800049
:202D00004400C00006010000261200103A884B29C4FFBF103A88C71836FB3F29260D001813
:202D20003A880500360240313AC84D313AB0C4107AD006187AD00A281EFA3F182601003833
:202D40003AC885003A2800F83AC809014400C00106E43F003A88050006F83F00161A002004
:202D60003A880F003A8805200E0100283AC84B014400C0002E090029040880014400C00021
:202D800006010000260D00303A884B29C4FFBF313A88C71836FB3F29260800187AD00618F8
:202DA000360140113AC845117AD00A281EFB3F18260100383AC885003A2800F83A88052020
:202DC00026FD3F3806FB3F003AC809014400C00106E43F003A880D202E1500291614002832
:202DE000040880004400C00006020000260E0010160500283A884B29C4FFBF103A88C7184B
:202E000036FA3F29260800183A880500360240313AC84D313AB0C4107AD006187AD00A2842
:202E20001EFA3F183A2800F83A8805003A2800F84400C00006F43F003A8805202E1300291A
:202E400016120028040880014400C00006020000260C0030160500283A884B29C4FFBF31FB
:202E60003A88C71836FA3F29260600187AD00618360140113AC845117AD00A281EFB3F18A1
:202E80003A2800F83A8805203A2800F84400C00006F63F003A880500260700204C00C02018
:202EA0007AD00820260100183A8845113A884B291EFA3F203A2800F83A2800F83A88052001
:202EC0003A8807001E01C0303A2800F83A88CF280300C0393A88C9104400C0180500C0216E
:202EE00006F83F0004FDFFDE1500C0DF150180D91502C0D9170280213404800004768D105B
:202F0000150180303A880D28170240210401C0D9800A03011700C0DF0403C0DE3A2800F899
:202F200004FCFFDE1500C0DF150140D9150280D91503C0D974008000170FC5103404800009
:202F400004768D1017024019040180D9150180283A880B2017020019005C03011700C0DF97
:202F60000404C0DE3A2800F817028021016D030174008000170F85103A880B2017028011DF
:202F800074008000170F0511016D030104FDFFDE150000DC3A8821203A8809281502C0DF14
:202FA000150140DC3A88232800020301170240813404C0000476CD181501C0283A880F10BC
:202FC0003A880D883A880980805D0301E0FFFF101E0A001817028080170240813404800194
:202FE000170180104400C00104E89A313A8809803AE83E10E0FFBF103AC885001702C0DFC5
:20300000170140DC170000DC0403C0DE3A2800F8740080003A880B20170F0511C1F80201B1
:203020003A8805200700C0101E0200183AC805113A2800F84400801006FA3F0004FBFFDE39
:20304000150380DC150240DC150100DC1504C0DF3A8825203A882328050080D93A88213892
:20306000160700043A8805001704C0DF170380DC170240DC170100DC0405C0DE3A2800F80E
:20308000170180884400C0013A880DD83A880B883A8809903AE83E10C4FF3F8426F03F1059
:2030A000C4FFBF0006F03F0004E6FFDE151800DF1517C0DD151680DD151400DD1513C0DC6B
:2030C000151280DC151140DC151000DC1519C0DF151540DD3A8821203A882D28150580D989
:2030E0003A882F383A883900150200D83A8827003A8829003A8825003A882300150100D82F
:20310000150000D83A88050006050000600080111E330030880080111E0A003026180010BF
:203120001705C0D84400C018C3FF7F191505C0D8CC3F00291C20002104E03F211EF33F206E
:20314000061A0000A00080111E290030E000801126F33F3004F47F29CC3F4029A802802947
:203160001E390030E0FF3F911E350020BA9008903A88A5247A9024903A88A52C06E83F00BB
:20318000600900211EFE0020170180B0050840D94400C001040880D93A880BB03A880980C9
:2031A0003AE83E10261E0010C4FF3F073A8805E01719C0DF171800DF1717C0DD171680DD69
:2031C000171540DD171400DD1713C0DC171280DC171140DC171000DC041AC0DE3A2800F8F6
:2031E000200C80201EEF00105809802026E63F1004F4BF29CC3F8031A80280301E0C00105A
:20320000E0FFBF881E080010BA9004883A8863147A9022883A8863348400800006C03F002D
:20322000440000E706BE3F003A88230006F93F00A00B80201EE000108400800006C53F00D6
:203240003A88250006CC3F00201B80201ED80010E0FFBF901E0E0010150000D8601A802024
:203260001E200010881A80201E0B0010E01880201E910010201980201E1A001020160021B6
:2032800026A03F2044008000150280D8061300004400800406F13F00E01C80201E9D001058
:2032A000081D80201E090010E01B002126953F2004020005040180B8150480D8170040BD0F
:2032C0003A8827003A88070006100000601D80201EF83F10201E0021268A3F200404000529
:2032E00006F43F00040180B8150480D826F13F98170040BD160200A84400C00406F13F00E7
:203300003AC86B054400C0044400C0000408C0DD3A880DB81E2E00A83AC885B9150380D85B
:203320003AC885900E0980003A8885B8041000D92E0400B94400C0BD040C0001C5FF3FB97A
:203340001EFABFB83AC885B9150380D8170380D83A889518170080D83AC8AB8A263500103C
:20336000260A0018440B8000C50780D8170180B04400C001C40780D93A880BB03A880980D9
:203380003AE83E101E883F10440000E70E0740053A880FA8040C80013A880BB03A88098071
:2033A000C00303011E803F103A8879E5170380D83A88F9E53AC8EB153A88C5AD3AC8C7E543
:2033C000163280001704C0DD3A883918064D3F003A880BA03A8809A81506C0D840DD020115
:2033E0003A8809103A880BA0150380D840E902013AC885A8880200111703C0D91706C0D8B7
:20340000040880D91E050020040C80104400C0BDC5FFBFB83A882B3806BE3F00170200D94E
:2034200026020020C40D801006F83F00C415801006F63F000E0940053A880FA804088001A0
:203440003A880BB03A8809801506C0D8C00303011E553F101706C0D83A8879E526D33F1843
:20346000440B8000C50780D8170180B04400C001C40780D93A880BB03A8809803AE83E10B0
:203480001E493F10440000E706C83F00C4FFFFBD030080B84400C001C40780D9C50780D837
:2034A000170180B03A880BB03A8809803AE83E1026C13F10063C3F00900080881E08001007
:2034C000C4FF7F8D3A880FA8040880013A880BB03A880980C00303011E333F103A8879E5C8
:2034E000170080B84400C001040880D9050880D8170180B03A880BB03A880980040140BD9C
:203500003AE83E101E283F10440000E73A882FA806033F00170040BD040180B8150380D8D9
:203520003A8809A8000203013AC895883A882F100E0980023A880F50040880013A880BB02E
:203540003A880980150480DAC00303011E163F10170480DA3A88B9E2170180B03A880FB8C0
:203560003A880DA83A880BB03A8809803AE83E101E0D3F103A88F9E51703C0DD06E83E009F
:20358000150200D8150100D8150000D84400C00484020005C4FFBF04C4FF7F04440080003E
:2035A00006DF3E0044008000150080D8061A3F0044008000150180D8C400800006D83E00C6
:2035C000740080003A880F303A880D283A880B20170F0511810A03010B0080280C028010F6
:2035E000262500108F00802804FBFFDE1503C0DC150280DC150140DC150000DC1504C0DF5B
:203600003A8827203A8821283A8825303A8823380E1000100B008080141080100D00808068
:20362000C4FFBF00060D0000500081883A880F881E0100100400C1018F0040813A880D909F
:203640003A880998407203010EF2BF003AC8A3883A88A59016F47F043A8805001704C0DF60
:203660001703C0DC170280DC170140DC170000DC0405C0DE3A2800F8C4FFBF003A2800F81B
:2036800004FDFFDE34048000150100DC1502C0DF04768D101501802874008000C50000D985
:2036A0003A882120170F05114400C001C40080D9805D0301E0FFFF101E0100183A8805805C
:2036C0001702C0DF170100DC0403C0DE3A2800F804FDFFDE34048000150100DC1502C0DF01
:2036E00004768D101501803074008000170F05113A8821284400C0013A880B30C40080D993
:20370000C50000DC805D0301E0FFFF101E0100183A8805801702C0DF170100DC0403C0DE6A
:203720003A2800F804FEFFDE150000DC740080003A8821203A8809283A880B303A880D3871
:203740001501C0DF15230510009F0301D8FFFF101E0400187400C0001723C518260100181A
:203760001500C0801701C0DF170000DC0402C0DE3A2800F804FDFFDE1502C0DF150100DFC3
:20378000040100DF3A88090080B203013A88010000B603013404800104E99A3134044001DD
:2037A00004E95A293404000104E91A2180110601171DA0D0171EE0D0171F20D13A880D2001
:2037C0003A880B183A8809100078000115FFBFE04400000140AE050117FF3FE1807806018F
:2037E00004FAFFDE150500DF040500DF15FB3FE13A30050015FCBFE017FCFFE084FFBF008A
:203800003A7084183A70011017FCBFE015FFBFE017FBBFE015FDBFE017FDBFE01700801086
:2038200017FDFFE01701C0181501C01017FDBFE01701801017FDFFE01700C0181500C0109D
:2038400017FDBFE017FDFFE01501C01017FDBFE017FDFFE01500C01017FFBFE015FEBFE0EA
:2038600017FEBFE03A7001103A8801003A8837E0170000DF0401C0DE3A2800F804FBFFDE6E
:203880001504C0DF150300DF040300DF1709A0D015FFBFE01721A0D0440080101521A0D02E
:2038A000062E000017FFBFE01700801015FEBFE017FFBFE003048010CC3F801026040010A5
:2038C0001721A0D01E02001017FFBFE00504001017FFBFE0170280101721E0D0361D801811
:2038E00017FFBFE003048010CC3F80101E19001017FFBFE01703801017FFFFE01705C01852
:203900003A8809183AE83E1015FDBFE017FDBFE01E03001017FF3FE1007E0301060D0000F4
:2039200017FFBFE01702C01017FDBFE03A88871817FFBFE01502C01017FFBFE01702C0109B
:203940001721A0D02E03801817FFBFE04400C0000504C01017FEBFE015FFBFE017FFFFE008
:203960000409A0D01ECFBF183A8801003A8801003A8837E01701C0DF170000DF0402C0DE56
:203980003A2800F804FDFFDE1502C0DF150100DF040100DF15FF3FE117FF3FE1009505015B
:2039A0003A8837E01701C0DF170000DF0402C0DE3A2800F804FEFFDE1501C0DF150000DFFB
:2039C0003A8839D81712A0D0260300101712A0D03AE83E1006010000041CA0D03A8837E0C9
:2039E0001701C0DF170000DF0402C0DE3A2800F804F9FFDE1506C0DF150500DF040500DFA7
:203A000015FD3FE115FC7FE115FBBFE117FDBFE01609001017FDFFE03A8805183A88851048
:203A20003A88C510BA9004107400C00004A7C4183A88C510060100003A88050015FFBFE0BE
:203A400017FFBFE02621001017FFBFE017028010CC0080102618001017FFBFE017008010F6
:203A6000170680102614001017FFBFE0170080101706801017FBFFE03A880D1817FC7FE1FB
:203A800017FF3FE13AE83E1015FEBFE017FEBFE00E070010409B03013A88071017FEBFE089
:203AA0003AC8850015008018C4FFBF00060C000017FEBFE0060A0000409B03013A880710C2
:203AC000440380001500801806040000409B03013A8807104414800015008018C4FFBF00A9
:203AE0003A8837E01701C0DF170000DF0402C0DE3A2800F804FDFFDE1502C0DF150100DFB9
:203B0000040100DF15FF3FE1040F60D117FF3FE100C505013A8837E01701C0DF170000DFC2
:203B20000402C0DE3A2800F804FDFFDE1502C0DF150100DF040100DF15FF3FE1C0470601D8
:203B4000440080003A7001103A8801003A8837E01701C0DF170000DF0402C0DE3A2800F89F
:203B600004FEFFDE1501C0DF150000DF3A8839D804FAC001840080013A880B000420000134
:203B8000808A0401440080013A880B0074000001044F002140D303017400000104450021A5
:203BA00040AF03013A8801003A88010074000001045D0421C01C05013A8801003A8837E013
:203BC0001701C0DF170000DF0402C0DE3A2800F804FAFFDE1505C0DF150400DF040400DFC7
:203BE00015FE3FE115FD7FE115FCBFE117FEBFE01700801015FFBFE017FFBFE0040AC010CE
:203C000017FEBFE0170280103A880F1017FCBFE117FD7FE13A880918401F04013A8837E01F
:203C20001701C0DF170000DF0402C0DE3A2800F804FAFFDE1505C0DF150400DF040400DF66
:203C400015FE3FE115FD7FE115FCBFE117FEBFE01700801015FFBFE017FFBFE0040AC0106D
:203C600017FEBFE0170280103A880F1017FCBFE117FD7FE13A880918004104013A8837E0DD
:203C80001701C0DF170000DF0402C0DE3A2800F804FCFFDE1503C0DF150200DF040200DF0A
:203CA00015FE3FE117FEBFE01700801015FFBFE017FFBFE0040AC01017FEBFE017028010D3
:203CC0003A880B103A880918800904013A8837E01701C0DF170000DF0402C0DE3A2800F812
:203CE00004FAFFDE1505C0DF150400DF040400DF15FE3FE115FD7FE115FCBFE117FEBFE047
:203D00001700801015FFBFE017FFBFE0040A801017FCBFE117FD7FE13A88091000100401DF
:203D20003A8837E01701C0DF170000DF0402C0DE3A2800F804FAFFDE1505C0DF150400DF73
:203D4000040400DF15FF3FE115FE7FE115FDBFE117FFBFE04400C0001508C01017FFBFE0C8
:203D600017008010040180103A88071017FFBFE0170880103500801817FEBFE017FDFFE056
:203D8000150000D817FFFFE134048001047D8F313A880B183A88091000DB050117FFBFE0F0
:203DA0001509001017FFBFE0040280101720E0D017FFFFE13404800104FE8F313A880B184D
:203DC0003A880910408205010E04001017FFFFE03400A000C4FFBF10150180183A88010052
:203DE0003A8837E01701C0DF170000DF0402C0DE3A2800F804F8FFDE150700DF040700DF81
:203E000015F93FE117F9BFE015FDBFE017FDBFE01700801015FCBFE017FCBFE004018010C3
:203E20003700801015FBBFE017FBBFE00CC08010266B001017FBBFE00C4080102634001067
:203E40007400800015FFBFE017FDBFE0170A801044008010CCFF811015FABFE017FDBFE0C6
:203E6000170B801017FAFFE02614801817FCBFE03700801015FFBFE017FFBFE00C00A01031
:203E80002610001017FDBFE0170A801017FFFFE03A88091817FDFFE03A888518050E00112A
:203EA00017FDBFE0170A801044008010CCFFC11017FDBFE0150AC01006E33F003A880100A1
:203EC000060100003A88010017FFBFE0ECFFBF10260F001017FDBFE01708C01084FFBF0080
:203EE0003A70861817FDBFE01508C01017FCBFE0040180103A88071017FDBFE01708801058
:203F00003500801817FCBFE0040180103700801017FBBFE00C80801026BF3F1017FBBFE014
:203F20003AD4041015FEBFE00613000017FCBFE017FDFFE0170DC01817FD3FE13A88C72016
:203F4000030EC218CC3FC0181C20C01804E0FF183500C01017FDBFE0170D80104400801044
:203F6000CCFFC11017FDBFE0150DC01017FEBFE0C4FFBF1015FEBFE017FEBFE02605001019
:203F800017FDBFE0170DC01017FDBFE0170C80101EE6BF1817FEBFE0269F3F1017FDBFE0BE
:203FA0001708C01044FFBF003A70861817FDBFE01508C01017FDBFE0170080100401801039
:203FC0003A88071017FDBFE0170880103500801817FCBFE00401801037008010068E3F00F8
:203FE0003A8801003A8801003A8837E0170000DF0401C0DE3A2800F804FCFFDE150300DF9B
:20400000040300DF15FD3FE117FDBFE015FFBFE017FFBFE01700801004018010370080106A
:2040200015FEBFE017FEBFE00C008110260B001017FFBFE017008010040180103A88071072
:2040400017FFBFE017088010140081103500801817FFBFE015090010060A000017FFBFE0E2
:204060001709C0103400A00004FFBF103605C01017FFBFE0170980104400C01017FFBFE071
:204080001509C0101720A0D03A8837E0170000DF0401C0DE3A2800F804FDFFDE150200DFEB
:2040A000040200DF15FF3FE115FE7FE10605000017FEBFE00C0090102602001044FDBF00D1
:2040C000060B000017FFBFE0170DC01017FFBFE0170C80102605801817FFBFE01709C01056
:2040E00017FFBFE01701801036F1BF183A8805003A8837E0170000DF0401C0DE3A2800F8D2
:2041000004FAFFDE150500DF040500DF15FD3FE115FC7FE115FBBFE1C4F9BF0015FFBFE061
:2041200017FCBFE060809A101E04001017FCBFE0A0809A101E1800100629000017FDBFE06D
:204140001701C0103400A000C4FFBF102621801817FBBFE01700801015FEBFE017FEBFE074
:20416000900080101E06001017FEFFE03400A000C4FFBF102602801817FEBFE00602000015
:204180003400A00084FFBF1017FDFFE01501801815FF3FE0060F000017FDBFE01701C01075
:2041A0003400A000C4FFBF10260C801817FDBFE01709C01017FDBFE0170180103A8085187A
:2041C000CC3FC01017FBBFE01500C01015FF3FE0060200003A880100060100003A880100A6
:2041E00017FFBFE03A8837E0170000DF0401C0DE3A2800F804F3FFDE150CC0DF150B00DFAB
:20420000040B00DF15F83FE115F77FE115F6BFE115F5FFE117F7BFE015FFBFE006470000D5
:2042200017F8BFE0170A801015FDBFE017F8BFE0170B801015FCBFE017FDFFE017FCBFE0B9
:204240003605801817FDFFE017FCBFE03AC8851815FEBFE0060400000400C20017FCBFE013
:204260003AC8851815FEBFE017FEBFE0261E001017F6FFE017FEBFE02E02801817F6BFE0D1
:2042800015FEBFE017F8BFE0040EC01017FCBFE03A88851817FEBFE13A880B1017FF3FE103
:2042A000C0EB020117FFFFE017FEBFE03A88851815FFBFE017F6FFE017FEBFE03AC8851856
:2042C00015F6BFE017FCFFE017FEBFE03A888518CCFFC11017F8BFE0150BC01017F6BFE049
:2042E00016CFBF00060100003A88010017FFFFE017F7BFE01E14801817F5BFE00C0090108D
:204300001E1300103A88010017F8BFE0170A801017FDFFE01E05801817F8BFE01709C010EE
:2043200017F8BFE01701801036F7BF1817F8BFE0170A801017FDFFE02607801817F6BFE060
:2043400016B7BF00060500003A880100060300003A880100060100003A88010017FFFFE078
:2043600017F7BFE0261880183A30050015F9BFE017F9FFE084FFBF003A7084183A7001106C
:2043800017F9BFE015FBBFE017F8BFE0170880105400C01017F8BFE01508C01017F8BFE0F5
:2043A00017008010040180103A88071017F8BFE0170880103500801817FBBFE015FABFE05F
:2043C00017FABFE03A70011017FFFFE017F7BFE02604801817FFFFE017F7BFE03AC88518CD
:2043E0000606000017F5BFE00C0090102602001044FDBF0006010000C4FEBF003A8837E0C1
:204400001701C0DF170000DF0402C0DE3A2800F804F3FFDE150CC0DF150B00DF040B00DF70
:2044200015F83FE115F77FE115F6BFE115F5FFE115FF3FE017F7BFE015FDBFE00637000080
:2044400017F8BFE0170C801015FCBFE017F8BFE0170D801015FFBFE017FCFFE017FFBFE08F
:204460002E06801817FFFFE017FCBFE03AC88518C4FFBF1015FEBFE0060B000017FFBFE020
:20448000260500100400C20017FCBFE03AC8851815FEBFE006040000C4FFC10017FCBFE0D8
:2044A0003AC8851815FEBFE017FEBFE0261E001017F6FFE017FEBFE02E02801817F6BFE08F
:2044C00015FEBFE017F8BFE0040EC21017FCBFE03A88851817FEBFE117F77FE13A88091089
:2044E000C0EB020117F7FFE017FEBFE03A88851815F7BFE017F6FFE017FEBFE03AC8851824
:2045000015F6BFE017FCFFE017FEBFE03A888518CCFFC11017F8BFE0150CC01017F6BFE005
:2045200016C7BF00060100003A8801003A30050015F9BFE017F9FFE084FFBF003A70841882
:204540003A70011017F9BFE015FBBFE017F8BFE0170880109400C01017F8BFE01508C010E6
:2045600017F8BFE017008010040180103A88071017F8BFE0170880103500801817FBBFE09D
:2045800015FABFE017FABFE03A70011017F6BFE00E10800017F5BFE00C0090101E10001023
:2045A0003A88010017F8BFE0170D801017FFFFE01E05801817F8BFE01709C01017F8BFE0DA
:2045C0001701801036F7BF1817F8BFE0170980101E05001017F6BFE016D0BF000603000044
:2045E0003A880100060100003A88010017F7FFE017FDBFE02604801817F7FFE017FDBFE02C
:204600003AC885180606000017F5BFE00C0090102602001044FDBF0006010000C4FEBF00D8
:204620003A8837E01701C0DF170000DF0402C0DE3A2800F804F4FFDE150B00DF040B00DF34
:2046400015F83FE115F77FE115F6BFE115F5FFE117F5FFE017F6BFE03A88851815FCBFE086
:204660001702C0E0170180E03A88851815FBBFE0170180E015FFBFE017F6BFE015FEBFE072
:204680004400800015FDBFE017F8BFE0040580103A8809104400C00017F7BFE03A98841864
:2046A00035008020170380E08C0080101E05001017F8BFE0040380103A88071004008100B9
:2046C0003500801817F8BFE03700801017F8BFE0040280103700801015FABFE017FABFE02F
:2046E0000C1080102602001017FDBFE01E03001017FABFE00C20801026F43F1017FABFE06D
:204700000C108010261E001017FDBFE00E1C800017FDBFE0C4FFBF1015FDBFE017F5FFE05B
:2047200017FCBFE02E0A801817F8BFE0040180103A88091017F5BFE04400C01015F5FFE031
:2047400003008010CC3F801035008020060C000017FFBFE02608001017FFBFE0C4FFBF100A
:2047600015FFBFE017F8BFE0040180103A8807003500C010060200000400BF0015FDBFE0F9
:2047800017FABFE00C20801026D03F1017F8BFE03700801015F9BFE017FEBFE02604001058
:2047A00017FEBFE0C4FFBF1015FEBFE006050000170280E04400C0101502C0E017F9FFE0C3
:2047C0000500C01017FDBFE04400801015FDBFE017FEBFE01EBD3F101702C0E017FBBFE084
:2047E0001EBABF1817F8BFE0040280103700801015FABFE017FABFE00C08801026F93F108F
:20480000170380E04C0080101E04001017F8BFE0040380103A8807003500C010170180E085
:204820003A8837E0170000DF0401C0DE3A2800F804FAFFDE1505C0DF150400DF040400DF39
:2048400015FC3FE13A88070017FCBFE03500C01017FCBFE004018010370080103A3005002A
:2048600015FDBFE017FDFFE084FFBF003A7084183A70011017FDBFE015FFBFE0C0870301A0
:2048800017FFBFE015FEBFE017FEBFE03A7001103A8801003A8837E01701C0DF170000DFF9
:2048A0000402C0DE3A2800F804F8FFDE1507C0DF150600DF040600DF15FE3FE115FD7FE1DE
:2048C00015FCBFE115FBFFE117FBBFE015FFBFE01720A0D01E02001017FFBFE01520A0D0A2
:2048E00017FEBFE004018010C401C0003500C010150000D817FEFFE134048001040C923177
:2049000017FC7FE117FD3FE100DB05013A8801003A8837E01701C0DF170000DF0402C0DE22
:204920003A2800F804FDFFDE1502C0DF150100DF040100DF15FF3FE1041360D117FF3FE1FE
:2049400000C505013A8837E01701C0DF170000DF0402C0DE3A2800F804F7FFDE1508C0DF74
:20496000150700DF040700DF15FC3FE115FB7FE115FABFE115F9FFE115FF3FE017FCBFE02F
:2049800015FEBFE017FEBFE0170B801017FBFFE00E06801817FBFFE017F9BFE03A88851863
:2049A00017FEFFE0170BC0180E02801884FCBF000617000017FEBFE0170AC01017FBBFE0AF
:2049C0003A88851817F9FFE03A880D183A880B1017FA3FE1C0EB020117FEBFE0172F80105C
:2049E000260A001017FEBFE0172F8010370080100C01801015FDBFE017FDBFE02001801074
:204A00001E020010C4FEBF0015FFBFE017FFBFE03A8837E01701C0DF170000DF0402C0DE53
:204A20003A2800F804FAFFDE150500DF040500DF15FD3FE115FC7FE115FBBFE115FF3FE0DA
:204A400017FDBFE015FEBFE017FBBFE02604001017FEBFE0170CC01017FBBFE01500C010C9
:204A600017FEBFE0170C80101E03001004FDBF0015FFBFE0060D000017FEBFE0170C8010B1
:204A8000500280101E03001084FCBF0015FFBFE00606000017FCBFE02604001017FEBFE065
:204AA000040DC01017FCBFE01500C01017FFBFE03A8837E0170000DF0401C0DE3A2800F8FD
:204AC00004F9FFDE1506C0DF150500DF040500DF15FC3FE115FB7FE115FF3FE017FCBFE0DB
:204AE00015FEBFE017FEBFE0170B801017FBFFE01602801884FCBF000646000017FEBFE0BE
:204B0000172F80102603001017FEBFE0172E80102602001044FBBF00063E000017FEBFE0CF
:204B2000173F8010C4FFFF1017FBBFE03A7084182602001084FABF000636000017FE3FE1E0
:204B4000C066050115FFBFE017FFBFE02602001017FFBFE0062F000017FEBFE0172F801015
:204B60000401C01017FEBFE0172F801004018010370080102C003C1134208000C4FFBF109B
:204B80003AB084203500801817FBBFE00E010010C4008010BAD0051015FDBFE017FEBFE092
:204BA000172F80100401801017FEFFE0172FC0180401C0183700C0182C003C1917FDFFE018
:204BC000341CC0183AB0C6203500C01017FE3FE1C066050115FFBFE017FE3FE1C06F05015A
:204BE00015FFBFE017FEBFE0172F80100401C01017FEBFE0172F801004018010370000113C
:204C000034008400C4FFBF103AB084203500801817FFBFE03A8837E01701C0DF170000DFB4
:204C20000402C0DE3A2800F804F2FFDE150DC0DF150C00DF040C00DF15F73FE115F67FE15C
:204C400015F5BFE115F4FFE115FF3FE017F7BFE015FBBFE015FE3FE017F5BFE015FDBFE0A4
:204C600017FBBFE0170B801017F6FFE00E0A801817FBBFE0170B801017F5FFE00E0680183B
:204C800017FBBFE0170BC01017F5BFE03AC88718170280E00E02801884FCBF00069300002C
:204CA00017FBBFE0172F80102603001017FBBFE0172E80102602001044FBBF00068B0000E7
:204CC00017FB3FE1C066050115FFBFE017FFBFE02602001017FFBFE00684000017FBBFE0E6
:204CE000172F80100401C01017FBBFE0172F801004018010370080102C003C1134208000D9
:204D0000C4FFBF103AB084203500801806650000C4FFBF0015F8BFE017FDBFE0CC008010FE
:204D20001E1E001017FDBFE00401C01004FFBF003A70841815FCBFE017FCFFE017FDBFE042
:204D40003AC88718170280E00E0180183A88051815FABFE017FEBFE017F4FFE03A88871806
:204D600017FA3FE104F8BFE03A880D203A880B183A880910C0EB020117FEFFE017FABFE066
:204D80003A88851815FEBFE01702C0E017FABFE03AC88518150280E00630000017FDBFE09A
:204DA000CC00801015F9BFE017FDFFE017F9BFE03AC8851815FDBFE017FDBFE00401C01070
:204DC00004FFBF003A70841815FCBFE017FCFFE017FDBFE03AC889181702C0E017F9BFE06B
:204DE0003A8887183A8805200E0180183A88051815FABFE004F8FFE017F9BFE03A8885184E
:204E00003A880F1017FEBFE017F4FFE03A88891817FAFFE017F9BFE03AC885183A880D1093
:204E20003A880B203A880938C0EB020117FAFFE017F9BFE03AC8851817FEFFE03A88851843
:204E400015FEBFE017FAFFE017F9BFE03AC885181702C0E03AC88518150280E017FBBFE0E2
:204E6000170AC01017FDBFE03A88851817F8FFE03500C01017FB3FE1C066050115FFBFE02B
:204E800017FFBFE01E0A001017FB3FE10079050115FFBFE017FFBFE01E07001017FCBFE025
:204EA00015FDBFE0170280E01E993F10060300003A880100060100003A88010017FBBFE07B
:204EC000172F80100401C01017FBBFE0172F8010040180103700001134008400C4FFBF1079
:204EE0003AB084203500801817FFBFE03A8837E01701C0DF170000DF0402C0DE3A2800F81E
:204F000004F1FFDE150EC0DF150D00DF040D00DF15F73FE115F67FE115F5BFE115F4FFE1E2
:204F200015FF3FE017F4BFE015FBBFE017F6BFE015FABFE017F7BFE015F9BFE017F9BFE082
:204F4000170B801017F6FFE00E06801817F9BFE0170BC01017F6BFE03AC8871817F4BFE06F
:204F60000E02801884FCBF000693000015FE3FE00682000017F9FFE017FEBFE03A91041075
:204F80003A888518170D801017F6FFE01678801817F9FFE017FEBFE03A9104103A8885180B
:204FA000170DC01017F93FE117FEBFE03A9104103A888520170E80103A88851817F6FFE0D3
:204FC0000E6B801817F9FFE017FEBFE03A9104103A888518170D801015FCBFE015FD3FE04A
:204FE000065C000017F6FFE017FCBFE0164D801817F9FFE017FEBFE0040180103A9104109F
:205000003A8885181700C01017FCBFE03A88851817F6FFE00E43801817F9FFE017FEBFE0C1
:20502000040180103A9104103A8885181700C01017FCBFE03A88871817F6BFE03AC8851858
:2050400015F8BFE017F8FFE017F4BFE00E0180183A88051815F8BFE017F9BFE0170AC0103A
:2050600017F6BFE03A88851817F8FFE03A880D183A880B1017F53FE1807A060126130010FD
:2050800017F9BFE01708801017F9FFE017FC7FE13A8809183AE83E1015FFBFE017FFBFE095
:2050A0001E0A001017F9BFE01709801017F93FE117F8FFE01500C0D817F5FFE117F6BFE1F5
:2050C00017FC7FE13AE83E1015FFBFE017F4FFE017F8BFE0262E801817FFBFE01E2C0010A7
:2050E00017F4FFE017F8BFE03AC8851815F4BFE017F9FFE017FEBFE0040180103A910410BA
:205100003A8885181700801017FCFFE03A88851815F6BFE017F8BFE017F5FFE03A88851896
:2051200015F5BFE017F9FFE017FEBFE0040180103A9104103A8885181700801017FCFFE0B7
:205140003A88851815FCBFE017FDBFE04400801015FDBFE017F9FFE017FEBFE03A91041086
:205160003A888518170F801017FDFFE0169DBF1817FEBFE04400801015FEBFE017F9BFE0B4
:20518000170C801017FEFFE0167ABF18060100003A88010017F9BFE0170AC01017FABFE0E7
:2051A0003A88851817FBFFE03A880B183A88091000BC050117FFBFE03A8837E01701C0DFD8
:2051C000170000DF0402C0DE3A2800F804F5FFDE150AC0DF150900DF150800DC040900DF65
:2051E00015F73FE115FD3FE015FC3FE015FB3FE015FA3FE015F93FE015FE3FE017F7BFE0B9
:20520000040D801015F8BFE017F7BFE0172F80102619001017F7BFE0172F80103700801025
:205220000C08801015FDBFE017F7BFE0172F8010370080100C10801015FCBFE017F7BFE0C6
:20524000172F8010370080100C20801015FBBFE017F7BFE0172F8010370080100C40801020
:2052600015FABFE017F7BFE0172F8010370080100C80801015F9BFE017F7BFE017308010E9
:20528000580080101E2C001017FDBFE0200880101E29001017FEBFE03A91041017F8FFE089
:2052A0003A88851817F7FFE01731C0181500C01017F7BFE01732C01017F7BFE01731801052
:2052C0003AC8871817FEBFE03A91041017F83FE13A8885204400C0181501C01017F7FFE015
:2052E00017FEBFE03A9104103A888518170E001117F7BFE0173F401117FEBFE03A9104109F
:2053000017F8FFE03A88A118C0CD02011502808017FEBFE03A91041017F8FFE03A8885189D
:2053200017F7FFE0173FC0181503C01017FEBFE04400801015FEBFE017F7BFE017338010A9
:20534000580080101E2C001017FCBFE0201080101E29001017FEBFE03A91041017F8FFE0C1
:205360003A88851817F7FFE01734C0181500C01017F7BFE01735C01017F7BFE01734801088
:205380003AC8871817FEBFE03A91041017F83FE13A8885204400C0181501C01017F7FFE054
:2053A00017FEBFE03A9104103A888518170E001117F7BFE0173F401117FEBFE03A910410DE
:2053C00017F8FFE03A88A118C0CD02011502808017FEBFE03A91041017F8FFE03A888518DD
:2053E00017F7FFE0173FC0181503C01017FEBFE04400801015FEBFE017F7BFE017368010E6
:20540000580080101E2C001017FBBFE0202080101E29001017FEBFE03A91041017F8FFE0F1
:205420003A88851817F7FFE01737C0181500C01017F7BFE01738C01017F7BFE017378010BE
:205440003AC8871817FEBFE03A91041017F83FE13A8885204400C0181501C01017F7FFE093
:2054600017FEBFE03A9104103A888518170E001117F7BFE0173F401117FEBFE03A9104101D
:2054800017F8FFE03A88A118C0CD02011502808017FEBFE03A91041017F8FFE03A8885181C
:2054A00017F7FFE0173FC0181503C01017FEBFE04400801015FEBFE017F7BFE01739801022
:2054C000580080101E2C001017FABFE0204080101E29001017FEBFE03A91041017F8FFE012
:2054E0003A88851817F7FFE0173AC0181500C01017F7BFE0173BC01017F7BFE0173A8010F5
:205500003AC8871817FEBFE03A91041017F83FE13A8885204400C0181501C01017F7FFE0D2
:2055200017FEBFE03A9104103A888518170E001117F7BFE0173F401117FEBFE03A9104105C
:2055400017F8FFE03A88A118C0CD02011502808017FEBFE03A91041017F8FFE03A8885185B
:2055600017F7FFE0173FC0181503C01017FEBFE04400801015FEBFE017F7BFE0173C80105E
:20558000580080101E2C001017F9BFE0208080101E29001017FEBFE03A91041017F8FFE012
:2055A0003A88851817F7FFE0173DC0181500C01017F7BFE0173EC01017F7BFE0173D80102B
:2055C0003AC8871817FEBFE03A91041017F83FE13A8885204400C0181501C01017F7FFE012
:2055E00017FEBFE03A9104103A888518170E001117F7BFE0173F401117FEBFE03A9104109C
:2056000017F8FFE03A88A118C0CD02011502808017FEBFE03A91041017F8FFE03A8885189A
:2056200017F7FFE0173FC0181503C01017FEBFE04400801015FEBFE017F7BFE017FEFFE08C
:20564000150CC01017F7BFE03A880910409204013A88010004FFFFE61702C0DF170100DFA0
:20566000170000DC0403C0DE3A2800F804FAFFDE1505C0DF150400DF040400DF15FC3FE194
:2056800015FF3FE0F40280000498AB1015FDBFE0F40280000498AB1015FEBFE0060C0000C8
:2056A000440000010095050117FDBFE02608001017FEBFE0C4FFBF1015FEBFE017FEBFE06D
:2056C0001E03001004E3BF0015FFBFE00605000017FCBFE0172F801037008010CC0080108A
:2056E0001EEF3F1017FFBFE03A8837E01701C0DF170000DF0402C0DE3A2800F804FAFFDE3A
:205700001505C0DF150400DF040400DF15FC3FE115FF3FE0F40280000498AB1015FDBFE00F
:20572000F40280000498AB1015FEBFE0060C0000440000010095050117FDBFE02608001007
:2057400017FEBFE0C4FFBF1015FEBFE017FEBFE01E03001004E3BF0015FFBFE00606000007
:2057600017FCBFE0172F8010370080100C048010180480101EEE3F1017FFBFE03A8837E0A5
:205780001701C0DF170000DF0402C0DE3A2800F804FAFFDE1505C0DF150400DF040400DFEB
:2057A00015FC3FE115FF3FE0F40280000498AB1015FDBFE0F40280000498AB1015FEBFE088
:2057C000060C0000440000010095050117FDBFE02608001017FEBFE0C4FFBF1015FEBFE0EE
:2057E00017FEBFE01E03001004E3BF0015FFBFE00606000017FCBFE0172F80103700801010
:205800000C028010180280101EEE3F1017FFBFE03A8837E01701C0DF170000DF0402C0DE06
:205820003A2800F804F5FFDE150A00DF040A00DF15F93FE115F87FE115F7BFE115F6FFE11B
:2058400015FF3FE01720A0D0263C001017F9BFE02638001017F9BFE017F7FFE01503C0105B
:2058600017F9BFE017F6FFE01505C0103A30050015FDBFE017FDFFE084FFBF003A70841808
:205880003A70011017FDBFE015FEBFE01721A0D015FFBFE017F8FFE017FFBFE03A8885188B
:2058A0004400C01017F9BFE01502C01017F9BFE01702C01017FFBFE02E04801817F9BFE078
:2058C0004400C0000504C0100602000017F9BFE00504001017F9BFE00409E0D015FBFFE0C0
:2058E00015FABFE017FABFE017FBFFE01501C01017FBBFE01700C01017FABFE01500C01046
:2059000017FBBFE01700801017FAFFE01501C01017FBBFE017FAFFE01500C01017FEBFE01F
:2059200015FCBFE017FCBFE03A7001103A8805000603000084FABF000601000084DEBF0015
:205940003A8837E0170000DF0401C0DE3A2800F804FAFFDE1505C0DF150400DF040400DF08
:2059600015FC3FE14402800015FEBFE0F40340010490502917FE3FE140E902013A880B10FB
:20598000F4BE000104203C2140DD02013A880B1034002001C4FF3F2140DD02013A880B1061
:2059A00017FC3FE140DD020115FDBFE017FDBFE0262A001015FF3FE0061700003400A000AC
:2059C000C4FFBF10C4FFBF101EFE3F10F40340010490502917FE3FE140E902013A880B10B5
:2059E000F4BE000104203C2140DD02013A880B1034002001C4FF3F2140DD02013A88071005
:205A000017FCBFE03AC8C51015FCBFE017FFBFE04400801015FFBFE017FFFFE017FDBFE069
:205A200016E6BF18F40340010490502917FE3FE140E902013A880B10F4BE000104203C21DC
:205A400040DD020117FC7FE13A88091040E90201C4FFBF101EFE3F10060D0000F403400164
:205A60000490502917FE3FE140E902013A880B10F4BE000104203C2140DD020117FC7FE114
:205A80003A88091040E90201C4FFBF1016FEBF003A8805003A8837E01701C0DF170000DF4D
:205AA0000402C0DE3A2800F804FEFFDE1501C0DF150000DF3A8839D81712A0D026030010BB
:205AC0001712A0D03AE83E1006010000041CA0D03A8837E01701C0DF170000DF0402C0DEFC
:205AE0003A2800F804FBFFDE1504C0DF150300DF040300DF15FD3FE117FDBFE016090010C7
:205B000017FDFFE03A8805183A8885103A88C510BA9004107400C00004A7C4183A88C51015
:205B2000060100003A88050015FFBFE017FFBFE02619001017FFBFE01700801017048010D9
:205B40002606001017FFBFE0170080101704801017FF3FE13AE83E10060100003A8805008E
:205B600015FEBFE017FD3FE1C040060117FEBFE00E07001080AA05013A88071017FEBFE0A2
:205B80003AC8850015008018C4FFBF00060700003A8805000605000080AA05013A88071067
:205BA0004414800015008018C4FFBF003A8837E01701C0DF170000DF0402C0DE3A2800F85A
:205BC00004FDFFDE150200DF040200DF15FF3FE115FE7FE13A8801003A8837E0170000DFD3
:205BE0000401C0DE3A2800F804FCFFDE150300DF040300DF15FF3FE115FE7FE115FDBFE195
:205C000017FDBFE03A8837E0170000DF0401C0DE3A2800F804FEFFDE1501C0DF150000DF7D
:205C20003A8839D81712A0D0260300101712A0D03AE83E1006010000041CA0D03A8837E046
:205C40001701C0DF170000DF0402C0DE3A2800F804FAFFDE1505C0DF150400DF040400DF26
:205C600015FD3FE115FC7FE117FDBFE02603001017FDBFE0170280101E06001040C10501FE
:205C80003A880710840580001500801884FABF000613000017FDBFE017FCFFE015FFFFE087
:205CA00015FEBFE017FEBFE017FFFFE01501C01017FFBFE01700C01017FEBFE01500C0106E
:205CC00017FFBFE01700801017FEFFE01501C01017FFBFE017FEFFE01500C0103A88050039
:205CE0003A8837E01701C0DF170000DF0402C0DE3A2800F804FCFFDE1503C0DF150200DF96
:205D0000040200DF15FE3FE1041360D117FE3FE1004A060115FFBFE017FFBFE026090010F6
:205D200017FFBFE0170380102606001017FFBFE01703801017FE7FE117FF3FE13AE83E104E
:205D40000601000017FFBFE03A8837E01701C0DF170000DF0402C0DE3A2800F804FDFFDE25
:205D60001502C0DF150100DF040100DF15FF3FE117FFBFE02608001017FFBFE0170480100D
:205D80002605001017FFBFE01704801017FF3FE13AE83E103A8801003A8801003A8837E063
:205DA0001701C0DF170000DF0402C0DE3A2800F804F9FFDE1506C0DF150500DF040500DFC3
:205DC00015FF3FE115FE7FE115FDBFE115FCFFE1170280E0150080D817FCFFE117FDBFE1EC
:205DE00017FE7FE117FF3FE100F605013A8837E01701C0DF170000DF0402C0DE3A2800F878
:205E000004F9FFDE150600DF040600DF15FB3FE115FA7FE117FABFE015FFBFE03A30050054
:205E200015FEBFE017FEFFE084FFBF003A7084183A70011017FEBFE015FDBFE04400C00010
:205E400017FFBFE03A9884183A8807101722A0D03AB084181522A0D01722A0D0FA7001104C
:205E600017FDBFE015FCBFE017FCBFE03A7001103A8805003A8801003A8837E0170000DFF9
:205E80000401C0DE3A2800F804F9FFDE150600DF040600DF15FB3FE115FA7FE117FABFE0F9
:205EA00015FFBFE03A30050015FEBFE017FEFFE084FFBF003A7084183A70011017FEBFE023
:205EC00015FDBFE04400C00017FFBFE03A9884183A3084003A8807101722A0D03A70841834
:205EE0001522A0D01722A0D0FA70011017FDBFE015FCBFE017FCBFE03A7001103A88050040
:205F00003A8801003A8837E0170000DF0401C0DE3A2800F804FCFFDE150300DF040300DF38
:205F200015FE3FE115FD7FE1FA30050015FFBFE04400C00017FDBFE03A9884183A880710DC
:205F400017FFBFE03A7084183AC00410CC3F80103A8837E0170000DF0401C0DE3A2800F8D1
:205F600004F5FFDE150AC0DF150900DF040900DF15FA3FE115F97FE115F8BFE115F7FFE16E
:205F800084FABF0015FFBFE017F9BFE015FEBFE017FEBFE0080880101E2400103A3005009B
:205FA00015FCBFE017FCFFE084FFBF003A7084183A70011017FCBFE015FDBFE017FEBFE0E5
:205FC000FA90081017F8FFE0740080003A8885201587C51017FEBFE0FA90081017F7FFE022
:205FE000740080003A8885201588C51017F8BFE02605001017FEBFE03A880B1017FA3FE129
:2060000000E005010604000017FEBFE03A880B1017FA3FE180E8050115FFBFE017FDBFE0FA
:2060200015FBBFE017FBBFE03A70011017FFBFE03A8837E01701C0DF170000DF0402C0DE66
:206040003A2800F804F9FFDE1506C0DF150500DF040500DF15FE3FE115FD7FE115FCBFE11B
:2060600015FBFFE117FBBFE117FC7FE117FD3FE1C02A060115FFBFE017FFBFE01620001038
:2060800017FFFFE03A8805183A8885103A88C510BA9004107400C0003A88C71017A7C41879
:2060A00017FEBFE01500C01017FFFFE03A8805183A8885103A88C510BA9004107400C000F3
:2060C0003A88C71017A8C41817FEBFE01501C01017FFFFE03A8805183A8885103A88C51030
:2060E000BA9004107400C0003A88C71017A9C41817FEBFE01502C01017FF3FE1C040060101
:206100003A8801003A8837E01701C0DF170000DF0402C0DE3A2800F804FBFFDE1504C0DFA4
:20612000150300DF040300DF15FF3FE115FE7FE115FDBFE1C47FC0014400800117FF7FE1EA
:206140007400000104AA042140040601C47FC0013A880D0017FE7FE17400000104A704211F
:2061600040040601C47FC0014400800117FD7FE17400000104AD0421400406013A8801003E
:206180003A8837E01701C0DF170000DF0402C0DE3A2800F804FEFFDE1501C0DF150000DFF3
:2061A0003A8839D81712A0D0260300101712A0D03AE83E1006010000041CA0D03A8837E0C1
:2061C0001701C0DF170000DF0402C0DE3A2800F804FDFFDE150200DF040200DF15FE3FE128
:2061E00017FEBFE0170280103400D01017FEBFE01502C01015FF3FE00623000017FFFFE042
:206200003A8805183A8885103A88C510BA9004107400C0003A88C71017A7C41817FEBFE038
:20622000170080101E15801817FFFFE03A8805183A8885103A88C510BA9004107400C00098
:206240003A88C71017A984180E0C001017FFFFE03A8805183A8885103A88C510BA900410FF
:206260007400C00004A7C4183A88C51017FEFFE026028018C4FCBF000608000017FFBFE0D6
:206280004400801015FFBFE01711A0D03A88071017FFBFE02ED9BF183A8805003A8837E0D3
:2062A000170000DF0401C0DE3A2800F804F6FFDE1509C0DF150800DF040800DF15FA3FE141
:2062C00015F97FE115F8BFE1C4FFBF0015FEBFE044FBBF0015FDBFE015FC3FE0040F60D14C
:2062E00017FA3FE1004A060115FFBFE017FFBFE01E05001017FA3FE10053060115FFBFE043
:206300004400800015FCBFE017FFBFE0262C001017FF3FE18063060115FEBFE017FEBFE06C
:206320000E03001017FEBFE015FDBFE00626000017FEFFE03A8805183A8885103A88C510EA
:20634000BA9004107400C00004A7C4183A88C51015FBBFE017F9FFE034009000C4FFBF1099
:206360003A70861817FBBFE01502C01017FCBFE01E05001017FB3FE1001D060115FDBFE051
:2063800017FDBFE01610001017FFBFE0170380102608001017FFBFE01703801017F8FFE129
:2063A00017F9BFE117FA7FE117FB3FE13AE83E10060100003A88050015FDBFE00602000093
:2063C00044FBBF0015FDBFE017FDBFE00E09001017FE3FE1C0400601401906013A880710BF
:2063E00017FDBFE03AC8850015008018C4FFBF000601000017FEBFE03A8837E01701C0DFE9
:20640000170000DF0402C0DE3A2800F804FEFFDE150100DF040100DF15FF3FE117FFBFE0E7
:20642000D00080101E10001017FFFFE03A8805183A8885103A88C510BA9004107400C0006A
:206440003A88C71015A9041817FFFFE03A8805183A8885103A88C510BA9004107400C00075
:206460003A88C71015A704183A8801003A8837E0170000DF0401C0DE3A2800F804FFFFDE3C
:20648000150000DF3A8839D8FA7001003A8801003A8837E0170000DF0401C0DE3A2800F83B
:2064A00004FAFFDE1505C0DF150400DF040400DF15FD3FE115FC7FE117FCBFE0170080106D
:2064C00015FFBFE017FD3FE1000203014400801015FEBFE0060D000017FFBFE017028010D8
:2064E00017FEFFE03A880D1817FD7FE13A880910807A06011E02001017FFBFE0060700007F
:2065000017FFBFE01700801015FFBFE017FFFFE017FCBFE01EF0BF183A8805003A8837E040
:206520001701C0DF170000DF0402C0DE3A2800F804FBFFDE1504C0DF150300DF040300DF3F
:2065400015FD3FE1170DA0D015FFBFE00631000017FFBFE0170280103A880910000203014C
:2065600015FEBFE017FFBFE01702C01017FEBFE0C4FFBF103A88851803008010CC3F8010F8
:206580001C20801004E0BF10D80B80101E03001017FEBFE0C4FFBF1015FEBFE017FEBFE02C
:2065A00017FDFFE03A88851803008010CC3F80101C20801004E0BF10E00B80101E0800102B
:2065C00017FEBFE017FDFFE03A88851803008010CC3F80101C20801004E0BF101E0A0010D0
:2065E00017FFBFE01702801017FEFFE03A880D1817FD7FE13A880910807A06011E020010E2
:2066000017FFBFE00607000017FFBFE01700801015FFBFE017FFFFE0040DA0D01ECCBF1872
:206620003A8805003A8837E01701C0DF170000DF0402C0DE3A2800F804FCFFDE150300DF3B
:20664000040300DF15FD3FE104FABF0015FEBFE015FF3FE0061D000017FFFFE03A88051889
:206660003A8885103A88C510BA9004107400C0003A88C71017A784181E11001017FFFFE073
:206680003A8805183A8885103A88C510BA90041017FD3FE17400C0003A88C71015A70419F5
:2066A0001711E0D017FFBFE00E02801817FFBFE01511A0D017FFBFE015FEBFE006070000E6
:2066C00017FFBFE04400801015FFBFE017FFBFE0100880101EE03F103A88010017FEBFE05D
:2066E0003A8837E0170000DF0401C0DE3A2800F804FEFFDE150100DF040100DF15FF3FE1E2
:2067000017FFBFE084FEBF102804C0101E190018BA900610340480003A88851817C9991028
:206720003A6800106467100064671000746710007467100074671000646710006C67100072
:2067400074671000646710006467100074671000646710006C671000746710007467100019
:206760006467100044008000060300003A880500060100003A8805003A8837E0170000DF0D
:206780000401C0DE3A2800F804FEFFDE3A880B00150000DC1501C0DF3A882120807D0601A3
:2067A0003A880980408F06013A8807001E02C0303A8805003A2800F83A88C5204400C018FB
:2067C0003A88CF2803008010C3FFFF3926F7FF113AC8C5113A2800F804F7FFDE7400800048
:2067E0001503C0DC170EC514150680DD150540DD150400DD1508C0DF1507C0DD150280DC5A
:20680000150140DC150000DC3A882B203A88292844008005170D409C260400881722808C75
:206820001701008CC4FF3F840E0B00801708C0DF1707C0DD170680DD170540DD170400DD71
:206840001703C0DC170280DC170140DC170000DC0409C0DE3A2800F8260500A026F13F9030
:20686000BA9004803A888590172080101EED3F15BA900480170100893A888B88C4FF3F21E6
:206880001702C0281E0E00241501008C26E53F181701C08D260400903A9808B417404091CE
:2068A0003A704A211E0800283AE83E18170180881ED8FF15170D809826DA7F1406D53F00EA
:2068C0001502002806F13F00174140913A8885903A7048211E040020170040113A8809A813
:2068E0003AE83E1806F13F00170000113AE83E1806EE3F0004FDFFDE150200DF040200DF5E
:2069000015FE3FE13A88010017FEBFE015FFBFE017FFBFE02602001070F02A00060100009C
