:020000020000FC
:200000000000000000000000000000000000000000000000000000000000000000000000E0
:2000200004EDFFDE1500C0DF150240D8150380D81504C0D8150500D9150640D9150780D952
:200040001508C0D97A300B00150900DA150A40DA150B80DA150CC0DA150D00DB150E40DB94
:20006000150F80DB1510C0DB151140D904FFFFEB1512C0DB3A3109004C00802826030010B2
:2000800026020020C00F000106070000151240DF17FFBFE804FF3FE9401C00011E02001080
:2000A00004FFFFEB1512C0DB171140D9171240DF1700C0DF7A700128170240D8170380D89C
:2000C0001704C0D8170500D9170640D9170780D91708C0D9170900DA170A40DA170B80DA62
:2000E000170CC0DA170D00DB170E40DB170F80DB1710C0DB0413C0DE3A0880EF04F9FFDE81
:200100001506C0DF150500DF040500DF3A8801003A31050015FCBFE017FCBFE015FFBFE0FC
:2001200015FD3FE04400800015FEBFE017FFFFE017FEBFE03A7084182611001017FDBFE02F
:20014000FA900610740080003A88851817C5C71017FDBFE0FA900810740080003A88852049
:2001600017C687103A8809103AE83E183A8801003A31050015FBBFE017FBBFE00607000018
:2001800017FEBFE03A88851015FEBFE017FDBFE04400801015FDBFE006E43F0015FFBFE08E
:2001A00017FFBFE01EDE3F103A8801003A8801003A8837E01701C0DF170000DF0402C0DE8F
:2001C0003A2800F804FBFFDE1504C0DF150300DF040300DF15FD3FE1C4FFBF0015FFBFE0ED
:2001E00015FE3FE0172AA0D026070010172AA0D017FFFFE017FEBFE117FD7FE13A8809182D
:200200003AE83E10060200003AA03D003A8805003A8837E01701C0DF170000DF0402C0DE5E
:200220003A2800F87400C0061400E0DE740080061434A7D674008000144D87107400C00079
:200240001405C8182603C010150000100401801036FDFF10C0D50F0106FF3F0004F6FFDEF0
:200260001509C0DF150800DF040800DFC4FFBF0085FFBFE07404000104300C21C00D03018A
:2002800044008000C5FFBFE0061D0000C3FFBFE03A880910C0BE020115FEBFE017FEBFE0F1
:2002A0001700801026130010C3FFBFE03A880B107404000104390C2180FB020117FEBFE0FB
:2002C00003018010CC3F8010BA900610740480003A888518172C8C103A880B107404000103
:2002E000043C0C2180FB020117FEBFE00301801085FFBFE0C3FFBFE044008010C5FFBFE010
:20030000C3FFBFE0300280101EE03F100301A0D0CC3F00114319A0D0CC3F801084FDFFE016
:200320001504C0D84400C0001503C0D8150280D8150100D8150000D88400C00144288001DC
:200340003A880B0040E10101C5FDBFE0C3FDBFE02609001074040001043E0C2180FB020148
:20036000C3FDBFE03A880B107404000104450C2180FB0201060900007404000104470C21D4
:2003800080FB020183FDBFE0CC3F80103A880B107404000104450C2180FB02017404000162
:2003A000044B0C2180FB02010301A0D0CC3F00114319A0D0CC3F801084FDFFE01504C0D83B
:2003C0004400C0001503C0D8150280D8150100D8150000D8C400C001442880013A880B00E0
:2003E00040E10101C5FDBFE0C3FDBFE02609001074040001044E0C2180FB0201C3FDBFE006
:200400003A880B107404000104450C2180FB02010606000083FDBFE0CC3F80103A880B10EF
:200420007404000104550C2180FB020183FFBFE03A8837E01701C0DF170000DF0402C0DEF4
:200440003A2800F804FEFFDE150100DF040100DF15FF3FE1376CC0004400000117FFBFE0F9
:200460003A9884203AB08418356C80003A8801003A8837E0170000DF0401C0DE3A2800F8D0
:2004800004FEFFDE150100DF040100DF15FF3FE1376CC0004400000117FFBFE03A9884209D
:2004A0003A3084003A708418356C80003A8801003A8837E0170000DF0401C0DE3A2800F858
:2004C00004FCFFDE1503C0DF150200DF040200DF3A88052005FEBFE0C5FF3FE085FF3FE09E
:2004E000377080000DFFBFE007FEBFE00E060010C40200014044000103FEBFE03AC88500EF
:2005000005FEBFE006020000C40200010048000103FEBFE0C4188010CC3F8010F0318010C9
:200520001E030010440300014044000106020000440300010048000107FEBFE00419400122
:200540003A88091080D2020105FEBFE007FEBFE0840240013A88091080CA0201C5FFBFE0D3
:2005600007FEBFE0840240013A88091080D2020185FFBFE00BFFBFE0CC3F80100DFFBFE0CE
:20058000C3FFBFE03A9304103A8807100BFFBFE03AB084180DFFBFE083FFBFE03A92041065
:2005A0003A8807100BFFBFE03AB084180DFFBFE00BFFBFE0357080003A8801003A8837E01E
:2005C0001701C0DF170000DF0402C0DE3A2800F804FBFFDE1504C0DF150300DF040300DFFF
:2005E0003A88052005FDBFE0C5FF3FE085FF3FE03770800015FEBFE007FDBFE00E0600104D
:20060000840200014044000103FDBFE03AC8850005FDBFE00602000084020001004800012F
:2006200003FDBFE0C4188010CC3F8010F03180101E0300100403000140440001060200009D
:20064000040300010048000107FDBFE0041940013A88091080D2020105FDBFE007FDBFE0D4
:20066000840240013A88091080CA0201C5FFBFE007FDBFE0840240013A88091080D202018E
:2006800085FFBFE007FDBFE0840240013A88091080CA0201C5FFBFE007FDBFE084024001D8
:2006A0003A88091080D2020185FFBFE017FEBFE00CC0BF1015FEBFE0C3FFBFE03A910410A6
:2006C0003A88071017FEBFE03AB0C41015FEBFE083FFBFE017FEFFE03AB0841815FEBFE0D0
:2006E00017FEBFE0357080003A8801003A8837E01701C0DF170000DF0402C0DE3A2800F8DA
:2007000004FEFFDE150100DF040100DF3A8805200DFFBFE00BFFBFE0358080003A880100EE
:200720003A8837E0170000DF0401C0DE3A2800F804FEFFDE150100DF040100DF15FF3FE002
:20074000060700001700E0D017FFBFE03A8885180500001017FFBFE04400801015FFBFE060
:2007600017FFBFE0105882101EF63F103A8801003A8837E0170000DF0401C0DE3A2800F8D8
:2007800004EBFFDE1514C0DF151300DF151200DC041300DFC5FE3FE085FE3FE074040001C8
:2007A00004570C21C00D030140C2010174040001045E0C21C00D0301C03D0201849094005B
:2007C0008DF3BFE0441592000DF4BFE085F43FE0C4EDFFE07404800004738C10C405000172
:2007E0003A880D203A880B103A88091880E80201C4FFBF0035608000C4FFBF003500800011
:20080000840B000180FF020180CB010140460201C0BC0201CC3F8010181080101E060110E9
:20082000C3FEBFE01E07001044008000C5FEBFE04402000140440001C025000145FEBFE069
:2008400006EF3F0043FEBFE0580080101EEC3F101702A0D017008010980080101E070010B6
:20086000007300013A88050035688000C4FFBF0035608000C4FFBF0035008000375C80003F
:2008800015F9BFE0C4F4BFE03A88091040540101C5F8BFE0C3F8BFE0180180102606011047
:2008A000C3F8BFE0260900107404000104630C2180FB0201C3F8BFE03A880B107404000164
:2008C00004450C2180FB020106FC00007404000104650C2180FB020115FC3FE0060C000053
:2008E00017FCBFE004FFFFE03A88851843F6BF10CC3F80103A880B107404000104680C2173
:2009000080FB020117FCBFE04400801015FCBFE017FCBFE0900180101EF13F108BFDBFE0CB
:200920001E03001043F5BFE0CC3F80108DFDBFE017F9BFE01E5C001015FB3FE00616000067
:20094000170020D40414400117FB3FE100E602013A8885808407000117FBFFE03AC8C720EB
:200960003A88C51083F3FFE00500C010C3F3FFE04500C01003F4FFE08500C01043F4FFE0CB
:20098000C500C01083F4FFE00501C01017FBBFE04400801015FBBFE017FBBFE0900780108A
:2009A0001EE73F108BFDBFE01E3B001043F5BFE0CC3F80102638001043F5BFE0CC3F801001
:2009C00084F8BF10A802C0101E300018BA900610340480003A888518177882103A680010A2
:2009E000200A1000340A1000480A10005C0A1000740A10008C0A10008C0A10008C0A100017
:200A00008C0A1000080A1000F4FFBF0004CD8C1035608000C4FB890035008000061B0000BC
:200A20008466A600356080005466A6003500800006160000443D9200356080003A880500F1
:200A40003500800006110000C45B9000356080009443A30035008000060C0000F4FFBF0013
:200A600084668E10356080003A8805003500800006060000F4FFBF00847A911035608000EB
:200A8000C4168C00350080003A88010000730001440080003568800043F5BFE0CC3F8010B1
:200AA0008DFDBFE00651000017F9BFE0580080101E4E001015FA3FE006120000170020D452
:200AC0000414400117FA3FE100E602013A8885808407000117FAFFE03AC8C7203A88C510E0
:200AE0003A880910C4EDBFE0C405C0003A880D183A880B1080E8020117FABFE0440080108F
:200B000015FABFE017FABFE0900780101EEB3F108BFDBFE01E32001043F5BFE0CC3F8010FF
:200B2000262F001043F5BFE0CC3F801084F8BF10A802C0101E270018BA90061034048000A4
:200B40003A88851817D382103A680010800B10008C0B1000980B1000A40B1000B00B100089
:200B6000BC0B1000C80B1000D40B1000D40B1000740B10003A880500356480000615000053
:200B80004400800035648000061200008400800035648000060F0000C400800035648000D1
:200BA000060C00000401800035648000060900004401800035648000060600008401800087
:200BC0003564800006030000C4018000356480003A8801000073000144008000356880007D
:200BE00043F5BFE0CC3F80108DFDBFE043F5BFE0CC3F80103A8809100070000143F5BFE0C5
:200C0000CC3F80101C20801004E0BF103A880910004C000183F5BFE0CC3F80101C20801014
:200C200004E0BF103A880910005D00018402000180FF020106F23E00C0BC0201CC3F80106F
:200C4000D83F80101E0A001083FEBFE01EEC3E104400800085FEBFE04402000100480001C7
:200C60007404000104690C21C00D030106E43E0074040001046D0C2180FB0201C0BC020154
:200C8000CC3F80103A880B107404000104720C2180FB0201C3FEBFE026030010C5FE3FE0C7
:200CA00040C20101C03D020185FE3FE0440200010048000106D23E003A88010006D03E0011
:200CC00004F2FFDE150DC0DF150C00DF040C00DF3A88052015F97FE105FABFE074008000AA
:200CE0000473871015FEBFE0740080000473871015FDBFE003FAFFE07400800004738710A3
:200D0000150480D844028000150380D8150200D884008000150180D8150000D88401C00198
:200D2000042080013A880B003A88091840E10101C5FCBFE0C3FCBFE0260200103A8805007E
:200D400006D3000017FEBFE08B008010CCFFBF10704080101E030010044080008DFFBFE0F1
:200D60000603000017FEBFE08B0080108DFFBFE003FA3FE18BFFFFE07400800004738710E8
:200D8000150480D81503C0D8150200D884008000150180D8150000D88401C00104208001F9
:200DA0003A880B0040E10101C5FCBFE0C3FCBFE0260200103A88050006B5000017FEBFE017
:200DC0004301801085FCBFE006AA000017FEBFE043008010CC3F8010200180101E09001065
:200DE00017FEBFE003008010CC3F801017FDFFE03A88851815FDBFE017FDBFE015FEBFE0A9
:200E0000069C000017FEBFE04301801045FCBFE017FEBFE08301801005FCBFE017FEBFE0AC
:200E2000C3018010C5FBBFE043FCBFE0D80080101E8E001003FCBFE0580080101E8B0010BE
:200E4000C3FBBFE0980080101E88001003FABFE0FA9008108400C000740080003A8885207A
:200E600005B4C71003FABFE0FA900610740080003A88851817B387108B00801085FBBFE0B8
:200E80008048010103FABFE0FA9008107400C000045FC718740080003A88852015B3C710DA
:200EA00003FABFE0FA900610740080003A88851817B3871083FBFFE08D00C01017FEBFE0D4
:200EC000830080104519A0D003FABFE00519A0D017FEBFE003008010CC3F801017FDFFE032
:200EE0003A88851815FDBFE017FDBFE015FEBFE00657000017FEBFE043008010CC3F8010FE
:200F0000600180101E09001017FEBFE003008010CC3F801017FDFFE03A88851815FDBFE0C4
:200F200017FDBFE015FEBFE00649000003FABFE0FA900610740080003A88851817B387100D
:200F40000402801017FEFFE08300C0180500C01003FABFE0FA900610740080003A88851848
:200F600017B387100402801017FEFFE0C300C0184500C01003FABFE0FA90061074008000A6
:200F80003A88851817B387100402801017FEFFE00B01C0188D00C01003FABFE0FA9006108A
:200FA000740080003A88851817B387100402801017FEFFE08301C0180501C01003FAFFE0E5
:200FC00083FCBFE0150400D8150300D8150200D8150100D8150080D84402C0013A880D00F2
:200FE0003A880B003A88091840E10101C5FCBFE0C3FCBFE0260200103A8805000624000037
:2010000003FAFFE04319A0D0CC3F8010150400D8150300D8150280D8150100D8150000D862
:20102000C402C001440880013A880B003A88091840E10101C5FCBFE0C3FCBFE02602001093
:201040003A8805000612000044008000061000008BFFFFE074008000047387103A8885180D
:2010600017FDFFE036A3BF18060200003A880500060700008BFFFFE0740080000473871086
:201080003A88851817FDFFE03650BF183A8805003A8837E01701C0DF170000DF0402C0DEB0
:2010A0003A2800F804F2FFDE150DC0DF150C00DF040C00DF3A88052015F97FE105FABFE060
:2010C000740080000473871015FEBFE0740080000473871015FDBFE003FAFFE074008000D9
:2010E00004738710150480D844028000150380D8150200D884008000150180D8150000D8ED
:201100008401C001042080013A880B003A88091840E10101C5FCBFE0C3FCBFE0260200101B
:201120003A88050006D3000017FEBFE08B008010CCFFBF10704080101E0300100440800071
:201140008DFFBFE00603000017FEBFE08B0080108DFFBFE003FA3FE18BFFFFE074008000E7
:2011600004738710150480D81503C0D8150200D884008000150180D8150000D88401C001AC
:20118000042080013A880B0040E10101C5FCBFE0C3FCBFE0260200103A88050006B5000042
:2011A00017FEBFE04301801085FCBFE006AA000017FEBFE043008010CC3F80102001801004
:2011C0001E09001017FEBFE003008010CC3F801017FDFFE03A88851815FDBFE017FDBFE040
:2011E00015FEBFE0069C000017FEBFE04301801045FCBFE017FEBFE08301801005FCBFE0CB
:2012000017FEBFE0C3018010C5FBBFE043FCBFE0D80080101E8E001003FCBFE058008010DF
:201220001E8B0010C3FBBFE0580080101E88001003FABFE0FA9008104400C00074008000C4
:201240003A88852005B4C71003FABFE0FA900610740080003A88851817B387108B0080108C
:2012600085FBBFE08048010103FABFE0FA9008107400C000045FC718740080003A88852076
:2012800015B3C71003FABFE0FA900610740080003A88851817B3871083FBFFE08D00C01005
:2012A00017FEBFE0830080104519A0D003FABFE00519A0D017FEBFE003008010CC3F80108D
:2012C00017FDFFE03A88851815FDBFE017FDBFE015FEBFE00657000017FEBFE043008010C2
:2012E000CC3F8010600180101E09001017FEBFE003008010CC3F801017FDFFE03A888518F7
:2013000015FDBFE017FDBFE015FEBFE00649000003FABFE0FA900610740080003A888518D9
:2013200017B387100402801017FEFFE08300C0180500C01003FABFE0FA9006107400800062
:201340003A88851817B387100402801017FEFFE0C300C0184500C01003FABFE0FA90061057
:20136000740080003A88851817B387100402801017FEFFE00B01C0188D00C01003FABFE052
:20138000FA900610740080003A88851817B387100402801017FEFFE08301C0180501C0103D
:2013A00003FAFFE083FCBFE0150400D8150300D8150200D8150100D8150080D84402C00101
:2013C0003A880D003A880B003A88091840E10101C5FCBFE0C3FCBFE0260200103A880500AE
:2013E0000624000003FAFFE04319A0D0CC3F8010150400D8150300D8150280D8150100D842
:20140000150000D8C402C001440880013A880B003A88091840E10101C5FCBFE0C3FCBFE0FA
:20142000260200103A8805000612000044008000061000008BFFFFE0740080000473871050
:201440003A88851817FDFFE036A3BF18060200003A880500060700008BFFFFE07400800051
:20146000047387103A88851817FDFFE03650BF183A8805003A8837E01701C0DF170000DF62
:201480000402C0DE3A2800F804FFFFDE150000DF3A8839D80410C000740080004562C71061
:2014A0000404C000740080008562C7103A8801003A8837E0170000DF0401C0DE3A2800F823
:2014C00004FBFFDE1504C0DF150300DF040300DF15FE3FE10319A0D0CC3F80103A880B1064
:2014E00004380001806A01010319A0D0CC3F00110319A0D0CC3F8010FA9006107400800060
:201500003A88851817B38710040280108B008010CC3F8010150080D817FEFFE104028001D6
:201520004400400140250201C5FFBFE0C3FFBFE03A8837E01701C0DF170000DF0402C0DED0
:201540003A2800F804FBFFDE1504C0DF150300DF040300DF15FE3FE10319A0D0CC3F801066
:201560003A880B1004380001806A01010319A0D0CC3F00110319A0D0CC3F8010FA900610F6
:20158000740080003A88851817B38710040280108B008010CC3F8010150080D817FEFFE1E9
:2015A000040280014400400140250201C5FFBFE0C3FFBFE03A8837E01701C0DF170000DF6D
:2015C0000402C0DE3A2800F804FBFFDE150400DF040400DF3A8805203A88072815FDBFE1C8
:2015E00015FCFFE105FFBFE03A88051805FEBFE03A8805003A8837E0170000DF0401C0DE9D
:201600003A2800F804FBFFDE150400DF040400DF3A8805203A88072815FDBFE115FCFFE13A
:2016200005FFBFE03A88051805FEBFE03A8805003A8837E0170000DF0401C0DE3A2800F8F3
:2016400004FCFFDE150300DF040300DF3A8805203A8809283A88073005FFBFE03A88052073
:2016600005FEBFE03A88051805FDBFE03A8801003A8837E0170000DF0401C0DE3A2800F8B9
:2016800004FEFFDE150100DF040100DF3A88052005FFBFE03A8801003A8837E0170000DF76
:2016A0000401C0DE3A2800F804F8FFDE1507C0DF150600DF040600DF3A8805203A880728DE
:2016C00005FEBFE03A88051805FDBFE003FEBFE08400801005FEBFE01703A0D03A8809102D
:2016E00004FEFFE044008000150280D8150100D8150000D83A880F18440080013A880B0080
:2017000080EC100115FFBFE017FFBFE00E0300107404000104790C2180FB02011703A0D098
:201720003A88071004FDBFE0150200D8150100D8150000D83A880F10440080013A880B00F3
:201740003A88091880EC100115FFBFE017FFBFE00E0300107404000104790C2180FB0201FF
:201760003A8801003A8837E01701C0DF170000DF0402C0DE3A2800F804F7FFDE1508C0DF8E
:20178000150700DF040700DF3A8805203A88072815FCBFE105FEBFE03A88051805FDBFE0B9
:2017A00003FEBFE08400801005FEBFE01703A0D03A88091004FEFFE044008000150280D85A
:2017C000150100D8150000D83A880F18440080013A880B0080EC100115FFBFE017FFBFE0CE
:2017E0000E0300107404000104800C2180FB02011703A0D03A88071003FDBFE0150200D82F
:20180000150100D8150000D817FCFFE13A880D103A880B003A88091880EC100115FFBFE03B
:2018200017FFBFE00E0300107404000104800C2180FB020103FDBFE017FCFFE03A8885183A
:201840003A8837E01701C0DF170000DF0402C0DE3A2800F804F8FFDE1507C0DF150600DF76
:20186000040600DF3A88052005FDBFE01703A0D03A88091004FDFFE044008000150280D87F
:20188000150100D8150000D83A880F18440080013A880B0080EC100115FFBFE017FFBFE00D
:2018A0000E0300107404000104870C2180FB02011703A0D03A880710150200D8C4FEBFE0A5
:2018C000150180D844008000150080D83A880F003A880D003A880B003A88091880EC10019C
:2018E00015FFBFE017FFBFE00E0300107404000104870C2180FB0201C3FEBFE03A8837E077
:201900001701C0DF170000DF0402C0DE3A2800F804F7FFDE1508C0DF150700DF040700DFA3
:201920003A8805203A88072815FCBFE105FEBFE03A88051805FDBFE01703A0D03A88091097
:2019400004FEFFE044008000150280D8150100D8150000D83A880F18440080013A880B001D
:2019600080EC100115FFBFE017FFBFE00E03001074040001048D0C2180FB02011703A0D022
:201980003A88091003FDBFE0150200D817FCFFE01501C0D8150080D83A880F003A880D0031
:2019A0003A880B0080EC100115FFBFE017FFBFE00E03001074040001048D0C2180FB02019F
:2019C00003FDBFE017FCFFE03A8885183A8837E01701C0DF170000DF0402C0DE3A2800F893
:2019E00004FDFFDE1502C0DF150100DF040100DF3A88050035748000F403000104901021CD
:201A0000802110014400800035748000C5FF3FE004084001041E0001806A01013A880B001B
:201A2000041E0001806A010106080000C3FFBFE044008010C5FFBFE0C3FFBFE01E0300105F
:201A40007404000104940C2180FB0201041A000140850101CC3F80104C00801026F33F1005
:201A60003A8801003A8837E01701C0DF170000DF0402C0DE3A2800F804FEFFDE150100DF4B
:201A8000040100DF15FF3FE1440080003A8837E0170000DF0401C0DE3A2800F804FDFFDEC0
:201AA0001502C0DF150100DF040100DF043E000140850101C5FFBFE0C3FFFFE004F0BF00D6
:201AC0003A708418C5FFBFE0C3FFBFE02010C0101E2200184810C0101E020018263B0010D3
:201AE000064A00002020C0101E030018203080101E330010064500000306A0D0CC3F8010AD
:201B0000E00480101E3E00100436000140850101CC3F80108C0080101E0700104432400140
:201B200004360001806A01017404000104980C21C00D030106060000C432400104360001ED
:201B4000806A010174040001049E0C21C00D0301040480000506A0D0062900000306A0D0D5
:201B6000CC3F8010E00480101E2700100436000140850101CC3F80108C0080101E07001013
:201B8000C432400104360001806A010174040001049E0C21C00D030106060000443240010B
:201BA00004360001806A01017404000104980C21C00D0301040480000506A0D006120000D0
:201BC000040180000506A0D0061000000306A0D0CC3F80100C3C8010260300104400800006
:201BE0000506A0D0060900004432400104360001806A0101C40080000506A0D006030000B5
:201C00003A880100060100003A8801003A8801003A8837E01701C0DF170000DF0402C0DE4A
:201C20003A2800F804FEFFDE1501C0DF150000DF3A8839D88406400104220001806A010111
:201C4000009E01013A88090080A7010104204001042E0001806A01014400000180A70101FE
:201C60004434400104360001806A01010408400104340001806A010104014001043A00018D
:201C8000806A0101C0A901010408400104320001806A01014400400104200001806A0101E7
:201CA0003A8801003A8837E01701C0DF170000DF0402C0DE3A2800F804FEFFDE1501C0DF49
:201CC000150000DF3A8839D8377C80001E0400107404000104A40C2180FB020140D10101F9
:201CE00037788000580080101E0400107404000104A80C2180FB020100DE01013A88010028
:201D00003A8837E01701C0DF170000DF0402C0DE3A2800F804FDFFDE1502C0DF150100DFB6
:201D2000040100DFC5FF3FE0043200014085010185FFBFE083FFBFE03A880B107404000144
:201D400004AC0C2180FB020183FFBFE00C10801026030010C3FFBFE014108010C5FFBFE0AA
:201D600083FFBFE00C08801026040010C0A90101C3FFBFE014088010C5FFBFE083FFBFE068
:201D80000C028010260300103A880B00040E0001806A010183FFBFE04C0080102606001067
:201DA0000306A0D0440080100506A0D0C3FFBFE054008010C5FFBFE0C3FFBFE03A880B1075
:201DC00004320001806A01013A8801003A8837E01701C0DF170000DF0402C0DE3A2800F899
:201DE00004FDFFDE1502C0DF150100DF040100DF042C000140850101C5FFBFE03A88010058
:201E00003A8837E01701C0DF170000DF0402C0DE3A2800F804F1FFDE150EC0DF150D00DFA9
:201E2000040D00DF3A8815203A8813283A881130170240E1170300E11704C0E0170580E04F
:201E40003A880D5005FBBFE13A880D4805FABFE13A880D4005F9BFE13A880D3805F8BFE1BC
:201E600005F77FE105F63FE10DF5FFE00DF4BFE015FF3FE044008000C5FEBFE0170680E094
:201E80001E010010C5FE3FE003FBBFE03A880B1004380001806A010103F9BFE0CC3F801058
:201EA0001C20801004E0BF100E0200104400800015FFBFE003F9BFE085FCBFE003F8BFE0B7
:201EC000C5FCBFE003F7BFE005FDBFE003F6BFE045FDBFE00BF5BFE08DFDBFE00BF4BFE089
:201EE0000DFEBFE084FCBFE03A880D1004024001040800018077010103FABFE03A880B1074
:201F000004040001400D020185FEBFE083FEBFE02602001083FEBFE0060E0000C3FEBFE05A
:201F2000BA9006100404A0D03A8885181700801003FB3FE103FA7FE10BF4BFE117FFFFE0B4
:201F40001500C0D81706C0E13AE83E1085FEBFE083FEBFE03A8837E01701C0DF170000DFDE
:201F60000402C0DE3A2800F804F8FFDE1507C0DF150600DF040600DF3A8805203A88092812
:201F80003A88073015FBFFE105FEBFE03A88052005FDBFE03A8805180DFCBFE0170280E02E
:201FA0002626001003FEBFE0FA900610740080003A88851817B3C71003FDBFE0FA90041054
:201FC0003A8885180408C0008501C01003FE3FE103FD7FE10BFCBFE103FEBFE0FA90061018
:201FE000740080003A88851817B3C71003FDBFE0FA9004103A8885188B008010CC3F80109B
:20200000150080D817FBFFE140250201C5FFBFE0C3FFBFE026020010C3FFBFE0060800008E
:2020200003FDBFE03A880B1004280001400D0201C5FFBFE0C3FFBFE006010000C4FFBF005A
:202040003A8837E01701C0DF170000DF0402C0DE3A2800F804F9FFDE1506C0DF150500DF6F
:20206000040500DF3A8805203A8809283A88073015FBFFE105FEBFE03A88052005FDBFE08B
:202080003A8805180DFCBFE0170280E02606001003FDBFE03A880B1004280001400D02010B
:2020A000C5FFBFE00605000003FDBFE03A880B1004200001400D0201C5FFBFE0C3FFBFE0FD
:2020C0003A8837E01701C0DF170000DF0402C0DE3A2800F804F9FFDE1506C0DF150500DFEF
:2020E000040500DF3A8805203A88072805FCBFE03A88051805FBBFE01728A0D004FA400114
:202100003A88091000E602013A8807101727A0D03A880B103A88091800DA020104E284105D
:2021200015FEBFE085FF3FE045FF3FE003FCFFE003FBBFE03AB08418CC3F80103A880B106E
:20214000043C0001806A0101C4FFBF00C5FFBFE0060D00000432000140850101C5FDBFE0FB
:20216000C3FDBFE0CC3F80101C20801004E0BF100E0500100420400104320001806A01013B
:20218000C5FF3FE0060C00001728A0D004FA40013A88091000E602013A8807101727A0D011
:2021A0003A880B103A88091800DA02013A88071017FEBFE036E7BF18C3FFBFE02602001068
:2021C000C3FFBFE0061E0000043E000140850101CC038010C5FFBFE0C3FFBFE018018010A4
:2021E0001E07001043FFBFE04400801045FFBFE043FFBFE0183280101E0B0010060F000009
:20220000C3FFBFE0980380101E09001083FFBFE04400801085FFBFE087FFBFE0D800801056
:2022200026050010060100003A88010006BF3F003A880100060100003A880100C3FFBFE0A7
:202240003A8837E01701C0DF170000DF0402C0DE3A2800F804F8FFDE1507C0DF150600DF6C
:20226000040600DF3A8807203A88093015FBFFE1170280E005FEFFE03A88072805FDFFE074
:202280003A8807200DFCFFE005FABFE08DFF3FE003FEBFE0FA900610740080003A88851891
:2022A00017B3C71003FDBFE0FA9004103A88851883018010CC3F80103A880B10043A000116
:2022C000806A010103FDBFE03A880B103A880900400D020145FFBFE043FFBFE0260200107F
:2022E00043FFBFE0063800000432000140850101CC3F80100C0180101E02001004FCBF009A
:2023000006310000040C00014085010105FFBFE003FFBFE017FBBFE13A880B1004020001D4
:202320000091010115FBBFE00401400104320001806A010103FFBFE08BFFFFE03A88851889
:202340008DFFBFE003FFFFE003FABFE0360380188BFFFFE00BFCBFE036DABF18043E0001CB
:2023600040850101CC3F80100C048010260B001003FEBFE0FA900610740080003A88851887
:2023800017B3C71003FDBFE0FA9004103A8885180408C0008501C010060A000003FEBFE02E
:2023A000FA900610740080003A88851817B3C71003FDBFE0FA9004103A8885180404C00025
:2023C0008501C0103A8805003A8837E01701C0DF170000DF0402C0DE3A2800F804FEFFDE7D
:2023E000150100DF040100DFC5FF3FE0060D0000C3FFBFE0FA900610740080003A888518BA
:2024000015B30710C3FFBFE0FA900610740080003A88851805B40710C3FFBFE04400801084
:20242000C5FFBFE0C3FFBFE0700280101EF03F10041AE0D07400800015B3C7108D1A20D081
:2024400004108000451BA0D004048000851BA0D03A8801003A8837E0170000DF0401C0DE4B
:202460003A2800F804B2FFDE154DC0DF154C00DF154B00DC044C00DF0306A0D0CC3F8010AF
:202480000C3C80102008C0101E0E01184808C0101E040018260A0010200480101E1A001091
:2024A000067501002010C0101E680118E03FC0101E680118200C80101E3D0110066E0100D6
:2024C0000306A0D0CC3F8010E000C0101E0800182001C0101E0A0018580080101E5F011053
:2024E000C03D0201C40080000506A0D00605000004014001043A0001806A0101060100009A
:202500003A880100065501000306A0D0CC3F801004FCBF10A801C0101E520118BA90061057
:20252000340480003A888518174C89103A6800104825100080251000BC251000E02510009E
:2025400020261000342610001728A0D004FA40013A88091000E602013A8807101727A0D082
:202560003A880B103A88091800DA020104328010151DA0D0440480000506A0D006D000003D
:202580001728A0D004FA40013A88091000E602013A8807101727A0D03A880B103A88091842
:2025A00000DA02013A880710171DA0D02EC1C010840480000506A0D006BE00004400400136
:2025C00004320001806A010144004001043A0001806A0101C40480000506A0D006B80000A7
:2025E000043A000140850101CC3F80104C0080101EB20010043600014085010114028010D6
:2026000085FEBFE083FEBFE03A880B1004360001806A0101040580000506A0D006A70000C3
:202620000432000140850101440580000506A0D006A300007400800017B387100402C00094
:202640008D00C01084F9BFE0150480D804028000150380D8150200D844008000150180D879
:20266000150000D88401C001042080013A880B003A88090040E1010145FEBFE043FEBFE005
:202680001E85001043FBFFE07400800017B38710CC3FC0188D00C01083F9BFE0CC3F80101F
:2026A00084F9FFE01504C0D8150380D8150200D844008000150180D8150000D88401C00149
:2026C000042080013A880B003A88090040E1010145FEBFE003FDBFE0CC3F80102634001014
:2026E00003FDBFE0CC3F801084B9FFE01504C0D88400C0001503C0D84402C1001502C0D829
:20270000C400C0001501C0D8150080D88401C001042080013A880B003A88090040E1010174
:2027200045FEBFE003FDBFE0CC3F801083B9FFE0CC3FC01884B93FE1150400D91503C0D880
:202740004402C1001502C0D8C400C0001501C0D8150080D88401C001042080013A880B006C
:202760003A88090040E1010145FEBFE003FDBFE0CC3F001483B9BFE0CC3F80107AD00410F7
:20278000C4FFBF10CC3FC01084B9BFE0840080103A880B183A88091040C202013A880D1038
:2027A0003A880B807404000104AF0C2180FB020143FDBFE0CC3F80102634001043FDBFE032
:2027C000CC3F801084B9FFE01504C0D88400C0001503C0D84402C1001502C0D8C400C00063
:2027E0001501C0D8150080D88401C001042080013A880B003A88090040E1010145FEBFE036
:2028000043FDBFE0CC3F801083B9FFE0CC3FC01884B93FE1150400D91503C0D84402C1003A
:202820001502C0D8C400C0001501C0D8150080D88401C001042080013A880B003A880900C7
:2028400040E1010145FEBFE043FDBFE0CC3F001483B9BFE0CC3F80107AD00410C4FFBF100F
:20286000CC3FC01084B9BFE0840080103A880B183A88091040C202013A880D103A880B809C
:202880007404000104B50C2180FB0201040880000506A0D0060A000043FEBFE0451EA0D091
:2028A0000306A0D0051CA0D0C4FFBF000506A0D0060300003A880100066A00003A88010012
:2028C0000668000044008000C5FEBFE0062A0000C3FEBFE0FA900610740080003A888518E1
:2028E00017B387101E210010C3FEBFE07400C00017B3C718FA900810740080003A888520EE
:2029000015B3C710C3FEBFE0150400D8150300D8150200D8150100D8150080D84401C00187
:202920003A880D003A880B003A88090040E1010145FEBFE043FEBFE01E050010C3FEBFE0B8
:20294000051EA0D0040C80000506A0D0060D000043FEBFE0451EA0D00306A0D0051CA0D009
:20296000C4FFBF000506A0D006060000C3FEBFE044008010C5FEBFE0C3FEBFE03002801096
:202980001ED33F100306A0D0CC3F8010180880101E36001084FFBF00451EA0D00306A0D041
:2029A000051CA0D0C4FFBF000506A0D0062F0000C5FE3FE006170000C3FEFFE03A880518D6
:2029C0003A8885103A88C510BA9004107400C0003A88C71017008018031EE0D0CC3FC0187B
:2029E0003A880B003A8809183AE83E1045FEBFE043FEBFE0580080101E0300100410800048
:202A00000506A0D006060000C3FEBFE044008010C5FEBFE0C3FEBFE0300180101EE63F1025
:202A20000306A0D0CC3F8010180C80101E11001044FFBF00451EA0D00306A0D0051CA0D0B0
:202A4000C4FFBF000506A0D0060A00003A880100060900003A880100060700003A88010004
:202A6000060500003A880100060300003A880100060100003A8801003A88010004FFFFE647
:202A80001702C0DF170100DF170000DC0403C0DE3A2800F804FDFFDE150200DF040200DFDC
:202AA0003A88052015FE7FE105FFBFE03A8805003A8837E0170000DF0401C0DE3A2800F886
:202AC00004FBFFDE150400DF040400DF3A8805203A88072815FDBFE115FCFFE105FFBFE01D
:202AE0003A88051805FEBFE03A8805003A8837E0170000DF0401C0DE3A2800F804FDFFDEE4
:202B0000150200DF040200DF3A88052015FE7FE105FFBFE03A8805003A8837E0170000DF47
:202B20000401C0DE3A2800F804FBFFDE150400DF040400DF3A8805203A88072815FDBFE153
:202B400015FCFFE105FFBFE03A88051805FEBFE03A8805003A8837E0170000DF0401C0DE27
:202B60003A2800F804FDFFDE150200DF040200DF3A88052015FE7FE105FFBFE03A8805007E
:202B80003A8837E0170000DF0401C0DE3A2800F804FBFFDE150400DF040400DF3A880520C7
:202BA0003A88072815FDBFE115FCFFE105FFBFE03A88051805FEBFE03A8805003A8837E0BD
:202BC000170000DF0401C0DE3A2800F804FFFFDE150000DF3A8839D80306A0D03A8837E009
:202BE000170000DF0401C0DE3A2800F804FEFFDE150100DF040100DF3A88052005FFBFE0A0
:202C000003FFBFE0FA9006107400800004B387103A8885183A8837E0170000DF0401C0DE60
:202C20003A2800F804FCFFDE150300DF040300DF15FE3FE13A88052805FDBFE0C5FF3FE0DA
:202C4000060D0000C3FFBFE03A8885103A88071017FEBFE03A88C710C3FFBFE017FE3FE1ED
:202C60003A8885200300C0180500C010C3FFBFE044008010C5FFBFE0C3FFFFE003FDBFE065
:202C800036F0BF1803FDBFE017FEFFE03A8885180500001017FEBFE03A8837E0170000DFAD
:202CA0000401C0DE3A2800F8161A00203A880F000E0200283AC84B015C00C0393A880D202C
:202CC0004400C0002E090029040880004400C00006010000261200103A884B29C4FFBF10E9
:202CE0003A88C71836FB3F29260D00183A880500360240313AC84D313AB0C4107AD0061839
:202D00007AD00A281EFA3F18260100383AC885003A2800F83AC809014400C00106E43F004E
:202D20003A88050006F83F00161A00203A880F003A8805200E0100283AC84B014400C000FE
:202D40002E090029040880014400C00006010000260D00303A884B29C4FFBF313A88C7188E
:202D600036FB3F29260800187AD00618360140113AC845117AD00A281EFB3F1826010038E1
:202D80003AC885003A2800F83A88052026FD3F3806FB3F003AC809014400C00106E43F0057
:202DA0003A880D202E15002916140028040880004400C00006020000260E00101605002847
:202DC0003A884B29C4FFBF103A88C71836FA3F29260800183A880500360240313AC84D31BC
:202DE0003AB0C4107AD006187AD00A281EFA3F183A2800F83A8805003A2800F84400C00043
:202E000006F43F003A8805202E13002916120028040880014400C00006020000260C0030DD
:202E2000160500283A884B29C4FFBF313A88C71836FA3F29260600187AD0061836014011F9
:202E40003AC845117AD00A281EFB3F183A2800F83A8805203A2800F84400C00006F63F0054
:202E60003A880500260700204C00C0207AD00820260100183A8845113A884B291EFA3F209C
:202E80003A2800F83A2800F83004C0303A8805201E2D00183AB00629CC00C0181E350018E8
:202EA00004FCFF323AD116583A8807203A880F284400C05A3A9116583A88C9221700003AF1
:202EC0001701803A1702403A0404C0391500001A17FF3F3A1501801A1502401A0404C018CD
:202EE00015FF3F1A1EF5FF200C0300313A88CB2ACC030032262200203A8809283A881318F3
:202F00000401002117FFBF223AC80F410401404A3A88CF2915FFBF4A2801C0391EF83F382D
:202F200004FF3F41BAD00820CC008031C4FFFF3144000021BA9008203A8807193A880B293D
:202F40001E0400303A2800F83A880720C4FFFF3126FC3F304400C0393A88CF1944004029C4
:202F6000C3FFBF294400C018C5FFBF191EFBFF193A2800F8C4FFFF313A88072006F53F004E
:202F80003A880D4006F13F0004FDFFDE3A8805281500C0DF150180D91502C0D917024021D2
:202FA0000401C0D93A880D10401803011700C0DF0403C0DE3A2800F804FCFFDE1500C0DFF2
:202FC000150140D9150280D91503C0D974008000173C87103A880B20040180D9170200114E
:202FE000C03005011700C0DF0404C0DE3A2800F81702802181B2090174008000173C871050
:203000003A880B20170280113A88091081B2090104F5FFDE150800DC3A8821203A8809283C
:20302000150940DC150AC0DF3A882328C00E030144000011150580D8440080007404C000F6
:20304000150780D8040480D804BBCC18150180D884008000150440DC1506C0D8150300D9AE
:20306000150280D81702408126020080170E8080261300100B0380280C00C8101E0600181B
:203080001719C028C4FF3701140088103A7006190D0380281519C028040180D93A88098031
:2030A000C08507011E0B001084028000170AC0DF170940DC170800DC040BC0DE3A2800F886
:2030C0003A880980150040D9C03F0701170040D906E83F00C4FFBF0006F43F007400800064
:2030E0003A880B20173C071101010301CC0080202620001007008020262000103A880520CC
:20310000060200000700C0102618001844008010CC00C0101EFB3F1817004011F4BFFF017F
:20312000C4BFFF393A88C7297420A0013A304A013A7046190420A0313A7086191E090018B2
:2031400004018010170040113A88C7293A304A013A7046193A70861926F93F18060100003C
:20316000440080100700C0101EFD3F183AC805113A2800F83A88052006E73F003A880500E6
:203180003A2800F804BDFFDE1542C0DF153D00DD153CC0DC153900DC150500D93A88212005
:2031A0003A8827283A8829301506C0D9154100DF1540C0DD153F80DD153E40DD153B80DC3B
:2031C000153A40DC00E90701170080103A880910150D80D8C00E0301150B80D826020080A5
:2031E000170E808026DE02100B0380980C00C8101E0600181719C098C4FF3701140088101F
:203200003A7006190D0380981519C0980C02C010269A00181704C098269800188C06801016
:2032200098028010269D00100429C0DD151CC0DD151E00D8151D00D8150800D8150900D8F9
:20324000150A00D83A8811B8150C00D8151100D8150400D83A882DA0070080B026A2001066
:20326000600980101E3505103A8821B006020000269300183A8821884700808044004084C7
:203280005809C0101EFA3F103AC8A58D26960090171EC0D8171D80D8150080453A88871C7E
:2032A00044008010151D80D815018044151EC0D8080280101E850010040200421704C0D8C3
:2032C000470080803A88871C1504C0D8268600104700808A4400808D451500D83A88090036
:2032E0003A880B00C4FFFF023A8821003A881900440080B53A88395004F8BFE06816C010D2
:203300001E9D0018BA9004103404C0003A88C71017C68C183A680010503610007835100065
:203320007835100044361000783510007835100078351000783510007835100078351000D8
:203340001C3610000C36100078351000F4351000A8351000783510009C35100040351000B3
:20336000403510004035100040351000403510004035100040351000403510004035100025
:20338000783510007835100078351000783510007835100078351000783510007835100045
:2033A0007835100078351000643B1000843A100078351000843A1000783510007835100011
:2033C0007835100078351000783A10007835100078351000443A100078351000783510002F
:2033E000783510007835100078351000843C100078351000783510003C3C10007835100007
:203400007835100078351000783510007835100078351000783510007835100078351000C4
:2034200078351000D437100060371000843A1000843A1000843A1000543D1000603710005B
:203440007835100078351000403D100078351000043A1000C4391000C43C1000B83C100039
:20346000783510000437100078351000C436100078351000783510007C361000170500D94C
:203480003A880B98403E05011E5607100B0380988C068010980280101E633F108F038098CC
:2034A00016613F101706C0D9170500D93A880DA03A880B9840320501150480D806130000C5
:2034C0003AC8A58D26823F9006713F00170500D9041C80D93A880B98C0580A011E0800105F
:2034E0003A8811B806753F00171E80D826040010170500D9041C80D93A880B98C0580A01CA
:203500000B0380980C1080101E360710170480D81742C0DF174100DF1740C0DD173F80DD25
:20352000173E40DD173D00DD173CC0DC173B80DC173A40DC173900DC0443C0DE3A2800F873
:203540003A88210004F4FFE0BA900480440080B5C7FF3FB73A8821143A8821843A88211C51
:2035600004F4FFE0B00280181EF73F1004F8BFE06816C01026633F18CC3F00211E74062019
:2035800026D93FE0051F00DF451500D84400400544000005041F40DC069700001420006393
:2035A000070080B206523F00070000B7440080B0A00AC0E01E49071804F4FFE0B002801917
:2035C0003A882D103A881700264B3F30BA900458440080B5C7FF3FB73A88D7123A88D75ABA
:2035E0003A88D75804F4FFE0B00280181EF73F1006413F00030000B7CC3F80E21C2080529A
:203600001401006304E0BF5206393F0044000001C40A4001070080B206353F00170680D843
:20362000030000B7170000140401801016DA0480150680D8CC3F80E21C20805204E0BF52B9
:20364000062B3F0054000063070080B206283F00CC3F80281C20801004E0BF10030000B7B1
:203660001EF43F10CC3F80E21C208052440000010408400104E0BF52061D3F00CC3F002159
:203680001EB806207404800004C58C10150C80D80C08806026700110170680D817004015DC
:2036A0001701001504028010150680D84C008060260200103AB004AD1EAA041084008000F5
:2036C000068F0100CC3F00211EA406200C0880601EB40110170680D80C04C0601700401558
:2036E000040180101E6E01180C10C06026A50518150680D8CCFF7FAD3A8829004400800053
:20370000067F0100170680D8451500D8170040140401801426CA0488150E00DA150700DB08
:20372000E0FFBF581E6C05103A880D583A880B003A8809881506C0DA008708011706C0DAB1
:20374000170700DB170E00DA266C06103AC869143A882BA016FC05A0150680DC0626000063
:20376000CC3F00211E7B06200C0880601E7F0110170680D80C04C060040180101E0001184B
:203780000C10C06026FE00181706C0D8150680D80F00401DFAD729A83A8805A016FE0010F0
:2037A000D8FFBF58431540DB26850110C4DFFF003AB004AD3A70D8601E8101101E83015823
:2037C0003A8825603A8817003A8829003A8823B8068301001706C0D8451500D84400400547
:2037E000170080180401C0181506C0D8051F80D844000005041F40DC3A8825603A88170066
:20380000150700D88C00809326010070840040AD0C214093171EC0D81E0200683AC84F85E2
:2038200016CEC201471580D8260C0010171D80D8441500D94400C0184400801015000041E7
:2038400044000001151D80D815010041151EC0D8080280101EFB021004020042260C0070C8
:20386000171D80D8841500D98400C018440080101500004184000001151D80D8150100415E
:20388000151EC0D8080280101EFC0210040200421820406B26CF01683AC80F5D1606C201C1
:2038A0000C4080901E7C0110171D80D83A88071D1500404444008010151D80D8150100453D
:2038C000151EC0D8080280101E570210040200420C018094260200903AC86385160940048E
:2038E0000E0140853A8821A8170480D83A880514150480D81E240218151D00D83A8811B8B9
:2039000006553E00740400035004008984D00C63171D80D81E1C002004048004170500DD88
:203920003A8839600604000004FC7F8C480400890402004226130020440080100404C018ED
:203940001500004715018044151EC0D8151D80D80802001126F43F20041C80D93A880B986A
:203960003A8809A0C0580A011EE53E1004FC7F8C48040089171EC0D8171D80D83A8811B8A4
:203980001EED3F203A8819E0440080103A88471C151D80D81500004315014044151EC0D8C2
:2039A000100280101ECE3F10170500D9041C80D93A880B98C0580A011ED13E10171EC0D82A
:2039C00006C73F00CC3F00211EDE05200C0880601EED0010170680D80C04C060170040156E
:2039E000040180101E1E00180C10C06026E10418150680D8CCFF7FAD3A8829003A88050063
:203A000006BF0000CC3F00211ED00520170600D90C0880600401C0201ED803100C048060DA
:203A20001E3204100C10006326300460170680D81506C0D81704C0D8170080100D00C0108A
:203A400006053E00CC3F00211EC805200C088060140400631ECC0010170680D80401801073
:203A60001706C0D83A882900150680D81700401D3A88050006A2000014020063070080B29E
:203A8000061B3E00CC3F00211EBC05201706C0D83400A000C4FFBF101701001D1700801C99
:203AA00034FCDF013A70A2A0C4FFBF0104028018C4FFFF393A8809903A880B88150F00DA40
:203AC000150EC0DA150700DB150A00DD150980DC150680D8C0680F01170700DB170EC0DA59
:203AE000170F00DA1E19031034FCDF01C4FFBF01C4FFFF393A8809903A880B8800450E01EA
:203B0000170700DB170EC0DA170F00DA0E0F83003A880D003A880F003A8809903A880BA0E5
:203B2000150E00DA00450E01170700DB170E00DA16E70410431540DB101280E01ED1041033
:203B40007404400404BD4C8CC4DFBF043A70A464C4004005C40000053A881700150700D859
:203B600006A30000CC3F00211E8205200C088060140400631E7D0010170680D80401801087
:203B80001706C0D81700401D150680D8FAD729A83A8805A00E023F103AC86B053AC004A809
:203BA0003AC829053AC8A9A0440B8000451580D8E0FFFF58440B40034400800026540018EB
:203BC0006000C0101E7E0018A00080101E3702103A8807B8060100003A880788FAD008A817
:203BE0007A970AA0FAD028A0CC0140AD040C80A83AB02A29C5FFBF183AB008ADC4FF7F1CB1
:203C00001EF53F204C00006126A00020CC3F80101C20801004E0BF10180C8010269B001000
:203C200084FFFF18040C8000C5FFBF883AC8E9B83A8825603A88231806690000CC3F0021CD
:203C40001E3E05207404800004C08C10150C80D80C0880601E903E101706C0D80C0480607D
:203C60001700401D0401C0181506C0D81EB102100C10806026AF0210CCFF7FAD3A8829009A
:203C8000068A3E00CC3F00211E3E05200C088060140400631E430010170680D804018010BF
:203CA0001706C0D83A882900150680D81700401D440080000612000014080063070080B2E9
:203CC000068B3D001706C0D8040C8000851580D8041E800074040001C51580D81700401D1E
:203CE00004018018150680D804C58C20150C80D83A8829009400006384008000041E0007B7
:203D0000451500D8E0FFFF583A881B001EAC3F18C4DFBF043AB006AD3A70A4641E8D0118C4
:203D20001EBB03581EA73E104C000065268502A0040C8000C52880D8C42840DC0628000033
:203D4000070080B2181B8050262C03101404006306673D0014100063070080B206643D0036
:203D6000170500D9C03F0701061F3D001706C0D8170180181700401D0402C0181506C0D87B
:203D80003A88291006853E001706C0D83A8805001700401D1701001D0402C0181506C0D8A9
:203DA00006D73F001706C0D8440080001700401D1701001D0402C0181506C0D806D03F001F
:203DC0001E1100A0A80280A81E0F0010040C40ADC52840DD3A88256044000005C42840DC66
:203DE0003A882B580E01005D3A882BA0150700D8CC3F406B1C20406B04E07F6B26813E68D9
:203E0000440040AD067F3E00150E00DC3A8823B83A8821A0150700DB3A882998150FC0DA57
:203E20003A8825403A882768060200003A882B103A8821183A8809A83A880B808402800143
:203E40003A880F0040A10C01040C8010C4FF7F8C3A8809A83A880B80050080888402800161
:203E60003A880F00803F0C011EF03F80A80240AD1EEE3FA8170700DB170E00DC170FC0DA94
:203E80003A881B983A8811903A8827A03AC869BC3A88256006D23F00901980E21EEA0050D9
:203EA000170900D9170A40D93A880D003A880F00150F00DA150EC0D8002E0E01170EC0D87C
:203EC000170F00DA1E890110171D80D87404000104CC0C21440080104400C01815000041E2
:203EE00044000001151D80D815010041151EC0D8080280101E35031004020042171680D804
:203F00001708C0D81604C0104C0080901E020010171EC0D8066E3E00170D80D8171EC0D8AC
:203F2000170B00D915008040171D80D83A88C7201501004144008010151D80D8151EC0D8FC
:203F4000080280101EB4021004020042170880D8C4FF7F140E5E7E04740400035004008988
:203F600084CC0C63171D80D81E790320150700DC04040005170500DF3A88216006040000EF
:203F80000402004204FC7F8C48040089266E0320440080100404C0181500004415010045DA
:203FA000151EC0D8151D80D80802001126F43F20041C80D93A880B983A8809E0C0580A016C
:203FC0001E4F3D10171EC0D8171D80D83A8811B806EC3F003AC84F850E2FFE017404000385
:203FE0005004003984CC0C63171D80D81E270020150E40DC150F80DC151000DC0404400379
:204000003A8821381512C0DA170540DC3A8825600604000004FC3F84480400810402004263
:2040200026140020440080100404C0181500804415014043151EC0D8151D80D80802001190
:2040400026F43F20041C80D93A880B983A880988C0580A011E2A3D1004FC3F84480400816E
:20406000171EC0D8171D80D83A8811B8040440031EEC3F203A880F803A881990170E40DCAB
:20408000171000DC1712C0DA170F80DC440080103A88C719151D80D8150000431501C04169
:2040A000151EC0D8080280101ECF02103AC80F5D040200420EFAFD017404000350040039D8
:2040C00084CC0C63171D80D81E250020150E40DC150F80DC151000DC0404C0023A8821388D
:2040E000170540DC3A8825600604000004FC3F844804008104020042261400204400801031
:204100000404C018150080441501C042151EC0D8151D80D80802001126F43F20041C80D96C
:204120003A880B983A880988C0580A011EF43C1004FC3F8448040081171EC0D8171D80D85D
:204140003A8811B80404C0021EEC3F203A880F803A881990170E40DC171000DC170F80DC1F
:20416000440080103A88C719151D80D8150000431501C041151EC0D8080280101E650110D7
:204180000402004206C63D00170500D9041C80D93A880B98C0580A0126D73D1006D83C0074
:2041A000170500D9041C80D93A880B98C0580A011ED33C10171600D9171EC0D83A8811B86E
:2041C0001E970220170800D94C0080903AB0041126BF3D10170D80D8170B00D91500804037
:2041E000171D80D83A88C7201501004144008010151EC0D8151D80D8080200111E69032045
:2042000004020042170800D944008010151D80D83A88C7201500404415010041151EC0D89C
:204220000802801026A93D10170500D9041C80D93A880B98C0580A011EB13C10171EC0D8EA
:204240003A8811B806A23D00170880D8171D80DA4400C018880080104400005504020047CF
:2042600026FB0010440080001501804015004044151EC0D8151D00DD100280A0262E021068
:20428000170B80D8170D00D9440000A53A888718150180E0150000E1151EC0D8151D00DD17
:2042A000080280A01E1B0210040200E7170880D8170900D9170A40D9440080A2040200E2A4
:2042C000C4FFFF123A880D003A880F001512C0D8151080DA150F80DA150E00DA1507C0DAFB
:2042E000002E0E011707C0DA170E00DA170F40DB171080DA1712C0D826E100104400408C20
:204300003A88C71A151D80DA150040E41501C0E2151EC0D8080280521EAD0150040480E052
:20432000840080A23A8839403A881110171100D9441880D8151D80DA3A88C720150080E05A
:20434000150100E1151EC0D8100280521E603D5006B53F003A88199006193E00740400036F
:204360005004003984D00C63171D80D81E2B0020151040DC151280DC151300DC0404C00365
:20438000150E80DB150F40DB1514C0DA3A882138170540DC3A8825600604000004FC3F8436
:2043A000480400810402004226140020440080100404C018150080441501C043151EC0D81D
:2043C000151D80D80802001126F43F20041C80D93A880B983A880988C0580A011E483C10B9
:2043E00004FC3F8448040081171EC0D8171D80D83A8811B80404C0031EEC3F203A880F80C4
:204400003A881990170E80DB170F40DB171040DC1714C0DA171300DC171280DC4400801009
:204420003A88C719151D80D8150000431501C041151EC0D8080280101ED60110040200422F
:2044400006F83C00170500D9041C80D93A880B981510C0DA150F40DB150E80DBC0580A01B0
:204460001E273C10171EC0D83A8811B81710C0DA170F40DB170E80DB06F83C00170500D9A2
:20448000041C80D93A880B98150FC0DA150E40DBC0580A011E1A3C10171EC0D83A8811B843
:2044A000170FC0DA170E40DB06F93C00170C00D93A8823B8CC0380A83A9706A03A88852053
:2044C0003AD12AA8030080103AD128A0C4FF7F8C3AB06A1D050080883AB004AD1EF53F1050
:2044E0003AC869BC3A882560063D3E00171600D90E9A0101170780D8170800D93A883910A4
:20450000162881200E0A0007171D80D83A88071F1500404444008010151D80D815010047D5
:20452000151EC0D8080280101EDE021004020042164101E0170780D83AC83917164801075A
:20454000171600D9170880D80E198120170D80D8170B40D915008040171D80D83A884719DC
:204560001501404144008010151D80D8151EC0D8080280101E65021004020042170880D88D
:20458000170740D93AC805110E5E01293A8839100E0C0007170700D93A88071F15010047CE
:2045A0003A882389171D00D915004044151EC0D844000021151D00D9080200211EC402207D
:2045C000040200420E0100E03A8839003AC839170EBF3C0774040003500400E184CC0C63D8
:2045E000171D80D81E400220150700DC04040005170540DC3A8821600604000004020042DD
:2046000004FC3FE7480400E126350220440080100404C0181500004415010045151EC0D897
:20462000151D80D80802001126F43F20041C80D93A880B983A880988C0580A011EB03B10EF
:20464000171EC0D8171D80D83A8811B806EC3F004C0080901E033F1044008000151D00DDA6
:204660001500404415018040151EC0D8080200A51ED700A08400805204040042062B3F00AC
:204680000E2AFF0250048058740400031EFE021084CC0C63150740DD150E80DC3A8805E0EE
:2046A000040440043A8839B03A8825583A882D803A882B60170500DC3A88296806050000B2
:2046C0000402801004FCBF9448040091268A0120440000A50404C0181500401515014014A6
:2046E000151EC0D8151D00DD080200A126F43F20041C80D93A880B983A880980C0580A0170
:204700001E7F3B10171D00DD171EC0D83A8805B806EC3F00170500D9041C80D93A880B9850
:20472000C0580A011E763B10171EC0D83A8811B8065B3C003A88290006DC3B003A8823B0E5
:2047400006E33A003A8823B806A53D00170900D9170A40D9150F00DA3A880D203A880F2898
:20476000150EC0DA150700DBC0680F01170700DB170EC0DA170F00DA1EB20210C4F7FF00F9
:204780003A70C6E0E0FFBF581507C0D81E4E0210D811801826000210170A80D81440806437
:2047A00016E30110170A40DD050E00D8A01980E0150F80D81E770110A01180E01E750110D6
:2047C000170780D8151200DA151000DB5811801026070210041A80D8150380D8170940D90B
:2047E000041780D8170500D9150280D8041680D81500C0DA150180D88400C0013A880DA897
:204800001508C0DA807705011708C0DA3A882310D81980E0171000DB171200DA3A8829589D
:204820001E0502104C0080601E0502101716C0D8170780D81507C0D8171AC0D8E0118010A9
:204840003AC8471C1508C0D8260500101707C0D850FFBF181E0100100E07C25884FF3FE720
:20486000170780D8451800DFC4FF3F15151600DD167C02A0C40A8000851880D8900280A03E
:204880001E5B0210150F00DCC41B40DD3A8821A0150700DB3A8829983A8827400602000063
:2048A0003A882B203A8821103A8809808402400180D20201040C80103A880980C5FFBFA87B
:2048C0008402400180CA02010819C080C4FF3FA91EF33F18040C8010C5FFBF2084FFFFA8E3
:2048E000C41B00D93A881198170700DB170F00DC3A8827A02E760219C41800D90601000096
:204900000300801844000021C5FFBF204400C018C41B80D81EFABF18441C80D8C418C0D886
:204920003AC845153A8885184418C0D83AC8C510151180D81708C0D8171100D9880080189B
:204940003A882919264C0210170B80D83A88A9A03A882BA00E0100A03A882B00150700D82D
:2049600006420100040C8000851580D8C51500DF940000638400800006E13C00170440D961
:20498000170080201506C0D8FAD70928150040111501001106303A003AC82104150680D814
:2049A00006153B003A88392016D73E0706E03E004C0080901EE53E10170880D8170740D9D5
:2049C0003AC805110E4F00293A88391006FD3E00170500D9041C80D93A880B98C0580A01F7
:2049E0001EC73A10171D80DA171EC0D8042B00DA440080523A8839B8064C3E00430000B7D1
:204A000014080063440080B5CC3F80E21C20805204E0BF5206363A00170500D9041C80D94A
:204A20003A880B98C0580A011EB53A10171EC0D83A8811B806453D003A88390006BD3E00F5
:204A4000F00180583A882958263D0110740440043A882BA0150680DC04CA4C8C06663B00C9
:204A600074040003500400E184CC0C63171D80D81E0D0120150E40DC150F80DC3A8823E06B
:204A8000040400053A8839B03A8825603A882D80170500DC060400000402004204FC7F8C53
:204AA0004804008926FA0020440080100404C0181500804415010045151EC0D8151D80D8A4
:204AC0000802001126F43F20041C80D93A880B983A880980C0580A011E893A10171EC0D838
:204AE000171D80D83A8811B806EC3F00170680D8170080101506C0D81704C0D81500C01007
:204B000006D53900170800D9170740D93AC87921069F3E00170500D9041C80D93A880B9800
:204B2000C0580A011E763A10171EC0D8171D00DD3A8839B806DD3D00170500D9041C80D955
:204B40003A880B98C0580A011E6D3A10171EC0D8171D00DD3A8839B806C93D00171D80D8CF
:204B60007404400104CC4C29440080104400C0181500404144004001151D80D8150140410B
:204B8000151EC0D8080280101E853D1004020042068B3D00170500D9041C80D93A880B98D7
:204BA0001510C0DA150F40DB150E80DBC0580A011E533A10171EC0D83A8811B81710C0DA82
:204BC000170F40DB170E80DB06163B00170500D9041C80D93A880B98C0580A011E483A1017
:204BE0003A8811B806C53C00170500D9041C80D93A880B98150EC0DAC0580A011E403A10C8
:204C0000171EC0D83A8811B8170EC0DA06223B006000C0103A88199026EB3B18066B3C006E
:204C2000170D80D8170B40D915008040171D80D83A88C7281501404144008010151EC0D875
:204C4000151D80D8080240111ED60028040200420E6C3D207404000308FC7F2184CC0C6356
:204C60003AC829011E4E01283A880980150740DC3A8821A0040400073A8823603A8829200E
:204C8000060400000402004204FC3F8448040081263E0120440080100404C0181500404460
:204CA00015010047151EC0D8151D80D80802001126F43F20170500D9041C80D93A880B98DB
:204CC000C0580A011E0E3A10171EC0D8171D80D83A8811B806EC3F003A880988C00E030101
:204CE0003A8829103A882B10150680DC170700DB170E00DA06C03A003A8817903A8819A861
:204D0000170E80DC170740DD3A8821B0440080A23A882DE03A883910040280103A88C71ACB
:204D2000150000E31501C0E2151EC0D8151D80DA080200511E263F20440080520402001240
:204D40003A88391006793D003A881980170700DC440080103A88471C151D80D8150000435C
:204D600015014044151EC0D80802801026D73A10062D3D00150680D83A8829003A88050058
:204D800006DF3B00150680D83A8829004400800006DB3B00041A80D8150380D8170940D996
:204DA000041780D8170500D9150280D8041680D81500C0DA150180D8C400C0013A880DA891
:204DC000151200DA151000DB1508C0DA807705011708C0DA3A882310171000DB3A88E912B1
:204DE00007008088171200DA200C80101E5A0010171680D83A88A9A0170900D93A880D0005
:204E00003A880F003A880BA8151200DA1510C0DA150800DB002E0E01170800DB1710C0DA9C
:204E2000171200DA1E8800103A8805A03AC845141707C0D8150880D8171680D8D811C01886
:204E4000150780D826813E18170F80D826843E101707C0D84C0080603AB0C4120E0DC100ED
:204E60001EF10010170700DD3A882BA0070E80D8267E0010440B8000451580D83A88170010
:204E800006DF3B007404400404BC4C8C062E3B003A8821B03A8819903A882DE0170F80DCE0
:204EA0003A883988170E40DC440080103A88071F151D80D81500004315010047151EC0D868
:204EC000080280101E42001004020042069C3D00440B8000451580D8440B400306163B0037
:204EE0003A881980170700DC440080103A88071F151D80D81500004315010047151EC0D897
:204F00000802801026713A1006C73C00170500D9041C80D93A880B98C0580A011E78391038
:204F2000171600D9171EC0D83A8811B806933D003C006015440B8000050E80D8061B3E00F3
:204F40008401000506C13E003A882B0006023A00451540D9068A3900170900D93A880D008F
:204F60003A880F003A880BA8151200DA1510C0DA150800DB002E0E01170800DB1710C0DA3B
:204F8000171200DA269A3F10440080003AC8C512151680D806973F001EFF3D584400C0024B
:204FA00006FD3D00170500D9041C80D93A880B98C0580A011E523910171600D9171EC0D82F
:204FC000171D80D83A8811B80E8E3C2006213F00170500D9041C80D93A880B98C0580A0166
:204FE0001E473910171EC0D83A8811B806543D00041A80D8150380D8170940D9041780D882
:20500000170500D94400005D150280D8041680D8150180D8150000DD8400C0013A880DA8FD
:205020001508C0DA807705011708C0DA171000DB171200DA3A882310D81180E026F93D1054
:205040003A88298D066C3F00171A80D8040C00012E763F154400C010151AC0D805000011A4
:20506000171A80D836FB3F1506703F00431540DB3A881700065E3B00170780D81708C0D855
:205080001622C0104C0000631E6000603A882B100E0100103A882B00170700DDC419000793
:2050A00006723F00170500D9041C80D93A880B98C0580A011E123910171EC0D83A8811B872
:2050C0000E1C3DE0065C3E008401C00206B23D00170500D9041C80D93A880B98C0580A01B7
:2050E0001E073910171680D8170800D9171EC0D83A8811B83AC8852006323D003A882B580C
:20510000150680DC3A88295806BB3900170880D8170BC0D83A88E910170780D816038000E0
:20512000170780D83AC8B9A0440000E53A882BA0163B00A0C4190007064C3F00451540D90F
:2051400006C03A00451540D906203A00451540D9062E3A00451540D906833900451540D9F3
:20516000065A3900451540D906463900451540D906363A00451540D9067C3A00451540D913
:2051800006423A00451540D906C03A003A881988170740DC3A8809A03A8829803A882120A4
:2051A000440080103A88071D1500004315010045151EC0D8151D80D80802001126103C2080
:2051C000170500D9041C80D93A880B98C0580A011ECB3810171EC0D8171D80D83A8811B8C4
:2051E00006083C00C4FFBF00150480D806C73800040C8000040CC0A0C51880D804018000B3
:205200000519C0D8151180D806CA3D00170780D8170BC0D83A88E9103A882BA00EC53FA023
:205220003A882B0006C33F00170B80D83A8885183A88E9123A882BA00E0C3FA03A882B0070
:20524000060A3F00170A80D8161D0010431540DB101280E01E1700107404400404BF4C8CB2
:2052600006393A004400C0003AC8A918440B8000851880D806813D004C008060150780D8C6
:205280001EB13D1006EB3F003A88054084CC0C6306A23E001E030010440040054400000513
:2052A00006F23E00170B80D8440080103A88E91206E03F007404400404BE4C8C06223A00D0
:2052C000440B8000451580D8440B400306E03F0084008000151180D806963D001706C0D886
:2052E0001700C01A0401C0180E010058C4FFFF02430000B71506C0D83A882D10CC3F80E29C
:205300001C20805204E0BF5206F93700740080003A880F303A880D283A880B20173C071110
:20532000411803010B0380281719002B8B03C02A1707802A1709402A04E2FEDE041A00DA7B
:205340000400C100151A01DC4CFFBF103A8821283A880BD8151C81DC151B41DC151DC1DF05
:205360003A8825200D0380D8151900DB8D03C0DA150780DA150940DA150000DA150400DAFB
:205380001502C0D81505C0D8150600D8401803013A8823100E0D00100B0380D80C1080102B
:2053A000260300100B038080141080100D0380803A880588171DC1DF171C81DC171B41DCE0
:2053C000171A01DC041EC1DE3A2800F83A880BD83A8809908006070126EF3F10C4FF7F046C
:2053E00006ED3F0074008000173C871004FDFFDE150140DC150000DC1502C0DF3A882320E1
:205400003A88212826020010170EC010262000180B0380800C02C0103A88091026220018CF
:205420001704C080262800184C0000111E0B00208C0080101E2D001017058080150280805B
:20544000260B00183A8805001702C0DF170140DC170000DC0403C0DE3A2800F81705808042
:20546000150200803AC88500150680801EF53F180B03C0803A8805000C20001926F23F20B8
:205480001410C0180D03C080C4FFBF0006EE3F003A880910C03F07010B0380800C02C0103D
:2054A0003A8809101EDE3F180C048020261F00100C0180201E0F00101704C08014028020BE
:2054C0000D0380801ED83F180CA00011208000211ED53F203A880B803A88098800F4070103
:2054E0000B0380801704C08006CF3F003A88050006D23F00170C4081260600280410808005
:20550000260380283A880988005607010B030081150C00801704C080C4F6BF003A70081142
:20552000150100801500C08006E43F004402800015008088141080200D038080C4FFBF001E
:2055400006C13F0004F2FFDE150400DC170480201704002C150DC0DF150C00DF150BC0DDFD
:20556000150A80DD150940DD150800DD1507C0DC150680DC150540DC167D0014C4FF3F84E8
:20558000BA902C800405002F0405C0243A88A5E53A88859D1700C09517000015150240D9F8
:2055A0004400C0BD150100D93A880BB83A8809A01500C0DC150380D800DA02013A88231058
:2055C0003632C0A53A882DE03A8829983A882B003A882F00040180B517FFFFB43A880B8876
:2055E000040100A5CCFF3F9900E602013AD408983A880B883A886B1500E6020117FFFFA092
:205600003AD40AA8CCFF3FA93AC809B9CCFFBF193A8889213AD406183A886B113AD40520A7
:20562000CCFF7FA93AC847193A8887183A940418CCFF3F213AD42AA83AB0081115FF3FA1C8
:205640003AD42F182EE3BF951703C0D8170080181E0E0010170000D904FFBF182E09802052
:2056600017FFFF1826030018060600001700C0101E0400181700C0D804FFBF10C4FF3F8488
:2056800036FABF18170180D815040014170240D9170100D94047090116280010170080D9F4
:2056A0004400408C3A880700040100E717FF3FE11700403104018031CCFFBF203AC8871866
:2056C000CCFFBF283A8885183AD408203AD406283AD40F10CCFF7F113AC807193A88C719FB
:2056E0003A9404183AD407183AB0441115FFBF302EED3F97BA900680170000D93A88C720F7
:20570000170080181E0D001004FFBF182E09802017FFFF1826030018060600001700C0108D
:205720001E0400181700C0D804FFBF10C4FF3F8436FABF18170180D8150400143A88058835
:20574000170DC0DF170C00DF170BC0DD170A80DD170940DD170800DD1707C0DC170680DCDB
:20576000170540DC170400DC040EC0DE3A2800F83A88050006F23F001710802004E2FFDE68
:20578000151C00DF1517C0DC151540DC151400DC151DC0DF151BC0DD151A80DD151940DD71
:2057A000151800DD151680DC150140D91502C0D93A8839203A882730172000DC3A8823301D
:2057C00026080010171180214400C0003A880B103A988619150180111502C01080C1080198
:2057E000151000E016810198150000802CFC9F9834FCDF002686C110170100D93A880D0034
:205800003A880F003A880B88002E0E011E190010171FC0D84400800015008018172180D80F
:2058200026240310172100D97404800044CC8C107404C0001500802004CC8C18150380D885
:20584000170380D8171DC0DF171C00DF171BC0DD171A80DD171940DD171800DD1717C0DC71
:20586000171680DC171540DC171400DC041EC0DE3A2800F8170180DC041280D83AD520988D
:20588000150080D80413C0D93A880B903A880D883A8809E0807E09013A882B101E70018078
:2058A000171280DC171300DC3A882194840C81805008C0101E0F0318041000013AC8852029
:2058C0003A98A698170180D8840401813AD808113AB0089980820F013A88091034847F0163
:2058E000440080003A884B19C4FF3F84150A80D83A880D0034FECF0100D20E01F4DB9801A7
:20590000F4F4CF0144D89031C4E9E1393A8809103A880B1800540E0174D8A201F4F1CF0164
:20592000C42CB231048AE2393A880B183A880910C0FD0C013A8809803A8829103A8827181A
:2059400000760F01F4279401F4F4CF01C47E9E31C404D1393A8809103A880B1800540E0153
:205960003A880D103A880F183A8809A03A880B98C0FD0C013A8809103A880B183A8829100A
:205980003A882718006E0F013A880D003A880F003A8809A03A880B983A882D1000450E01C5
:2059A00016BA02103AC82194E80580B0C4FF3F851EAE0210FA9006B07404800004F08C1004
:2059C0003A88C510170080111701C011170100D93A880B8800450E010E6F0210150900D880
:2059E000C4FFBFB516A402A0150500D80E6D02B0170580D81702C0D8150480DD3AC88515BE
:205A0000150580D83AC88505150880D8A80280183A882D001E690210900180181EBA021036
:205A200004FFBF18150280D83A8821001702C0D8E00080181E9D031008018018267A0210F0
:205A40001702C0D8200180182669021044008000150780D8171E80D80E678300150B80D806
:205A6000150680D83A880D10151100E010068030170680DC1EEB04104400C00004018000E9
:205A80003A888510040500113A880B184400C0182EFB3F31151140E13A8809E040B7080109
:205AA000150380D8151080E0E80380941EFE009026FD0080170400D90EC60301CC03802068
:205AC000FA9006103AD12F207404800004F08C103A88C5100C04C0B8170080121701401212
:205AE0001E620318170180D83A88278884000004150C80D87404800404E68C94260F00B836
:205B00003A8805503A8807484C0080B93A8809107AD02FB83A880B18260400301700809165
:205B20001701C0914400008400540E01040280941EF53FB83A8815103A881318170C00D9DD
:205B40003A880B983A880D503A880F48C0970D013A8825103A882718170980D82606001097
:205B60003A880D0034FCCF013A8809903A880B9800450E01162604103A88098000760F0121
:205B80003A880D903A880F983A8809103A880B1800540E013A880D003407D0013A88091064
:205BA0003A880B18C0FD0C01150C80D83430BF003A888518150D80D8170680D8266D0310A6
:205BC000170480D8150F80D8170680D8150E80D83A880B983A880990006E0F013A880910CD
:205BE0003A882F1000760F013A880D103A880F183A8809903A880B9800D20E013A882510BE
:205C0000170E80D83A882118040C40BAC4FFBF10FA9006107404800004F08C103A88C510B1
:205C2000170080111703C0D81701C011170780D83A881148151000DA4400C01D26A2031095
:205C40003A88090034F84F01151140DAC0970D01170C80D9170DC0D93A8809103A880B185F
:205C600000D20E013A882718171140DA1703C0D83A880D903A880F800500401A3A88091064
:205C80003A880B98150C80D800360E01171000DA164880003A880D903A880F803A88090087
:205CA00034FC4F01150D00DA00D20E01170C00D93A880D103A880F183A880B9800360E0119
:205CC000170D00DA164E8400170EC0D8600080181E750010170380D8150D80DD150E00DD95
:205CE0003A88C510170C00DD3A882D10150C40DC0608000000D20E013A880DA03A880F980A
:205D00003A8809103A880B1800450E0116230410266280BD3A8809A03A880B983A880D00BE
:205D20003409D00100540E013A880D003409D0013A8809903A880B803A8829103A88271871
:205D400000540E013A880B183A8809103A8821183A882510006E0F013A8809103A882310E0
:205D600000760F013A8809903A880B803A880D103A880F1800D20E014400C0BD040C408CAF
:205D80003A880DA03A880F983A8809103A880B18C5FF7FBC3A8825103A88211800450E0126
:205DA0003A880D903A880F803A88090034FC4F010ED03F10170F80D844008010150480D8F8
:205DC0003A880BA83A8809E080C10801171F80D81704C0D8050000B81500C010172180D8E6
:205DE00026973E101500C01506953E0034006004C4FF7F8C3A70629C440080003A88278892
:205E00001500808034FCDF002CFC9F981E7AFE1034048000171FC0D8C4FFBF103A70A69859
:205E2000C4C3890015008018170180D83AB0AA981E1400A8172180D826F603107404800078
:205E40003A88071004D6CC18740480001503C0D804D88C101721C0D81500801806783E0052
:205E600034044001C4FF7F293A704A893A88099034FC4F2944003F84171280DC150A00D83B
:205E8000069B3E00172180D81E4602107404800004D58C10150380D806693E00170D80DD12
:205EA000170E00DD170C40DC171380D8169F0010170400D9C803C0201E9C0018FA90062039
:205EC0007404800004F08C103A88C5101700001417018014171E80D80E140010170680D898
:205EE000161280001EB802103A8809803A880B903A880D003405D00100540E01170180D9BD
:205F00003A880F883A8809103A880B1800360E013A8825003A88210016FD0110171E80D8A8
:205F20001703C0DD3A30A20006FF01001701C0DC3A880D803A880F903A880B883A8809987C
:205F4000C0970D013A880B183A880910006E0F013A8809103A882D1000760F013A880D80EF
:205F60003A880F903A8809103A880B1800540E013A880B883A880D103A880F183A8809981D
:205F800000D20E01170340DC3A8809101704C0D9040C80B005008088170680D84400C0395C
:205FA0001504C0D9600080113A880B183A8805204400C08D1E3900303409D00100540E01E9
:205FC0003A880D003A880F003A8809103A880B183A8827103A882918002E0E0126783F103B
:205FE0001706C0D83A880588150140DD8400408C3A88ED10060A000000540E013A880D0019
:206000003A880F003A8809103A880B183A8827103A8829184400408C002E0E01269D0210D1
:206020003A880D803A880F903A8809983A880BA0C0970D013A880B183A880910006E0F013D
:206040003A8809103A882B1000760F013A880D803A880F903A8809103A880B1800540E010F
:206060003A880D103A880F183A8809983A880BA000D20E01040C40AAC5FF7F8A3A880D0011
:206080003409D0013A8809103A880B183A882F881ED97FB43A882DA8170140DD3A880D10E4
:2060A0003A880F183A8809103A880B18C0FD0C013A880D803A880F903A8809103A880B18FD
:2060C0003A8827103A88231800360E01160880003A880D803A880F903A8809983A880B887F
:2060E000002E0E011E363F104C0080B526343FB0C3FF3FBA170300D906030000260EC32028
:20610000C3FF3F1A3A882F18CC3F80401C20801004E0BF10600E8010C4FFFFB81EF73F1035
:20612000440000420500001A06253F001707C0D826E400181702C0D88800C01826EC01183C
:20614000170680D8C4FFBF14170880D80EC58114170880D8150880DC3AC885903A88ADB02F
:206160003A882500170680D8164C02101705C0D83A88A9A03A8885183A882718150580D8BE
:20618000440040013A8809E0C0F908013A8821100E08C0040E0700053A88059816A9C1A4A3
:2061A0001705C0D83AC8A7983AC8A9A03AC887181505C0D8170880D826140010170780D815
:2061C000267201100E0E80043A880B803A880D903A8809E0002109013A880DA83A880B10A0
:2061E0003A8809E03A88211000FD08013A882F103A880BA83A8809E080C108013A882BB8EB
:20620000170880D83AC88D141E610130440040013A8809E0C0F908013A88251016BC800574
:20622000170280D888008010266501103A882300440080001EBF00B03A880515CC078010C4
:2062400026AA00100408C0003AC88718500100191EF602200407C0003AC885181705C0D833
:206260003A88A7983A88A9A03A8887181505C0D8170580D8169780000E0500053A880B90E9
:206280003A880DA03A8809E0803309013A882510170980D81E2B0110170680D80E0D81004D
:2062A000170480D844008010150480D8170780D81EB200101703C0DD440040041706C0DCD8
:2062C00006030000C0C308013A882B104400408C3A880B903A8809A840540501040C801012
:2062E0004400C0BDC5FFBFB83A880F00840280013A880BA83A8809E016F2FF8C3A88111034
:206300003A8829003A880BA8440080013A8809E0150100DA803309013A880B903A880910C8
:206320003A882B1040470901C3FFFFB80E618100170340D90603000026770129C3FFFF2082
:206340003A882F20CC3F80181C20801004E0BF10600E8010C4FF3FB91EF73F104400C018D1
:206360000500C0203A880B903A8809E080C1080126933E80260400A0260300A43A880BA06B
:206380003A8809E080C108013A880B803A8809E080C10801068A3E00150900D8163600A016
:2063A000150500D81702C0D8150480DD150800D8A80280183A88A9A526973D1044008000AF
:2063C000150780D8C4FFBF00C4FFBF0444000004150200D8150680D8151E00D8170680D817
:2063E000151100E03A880B00150B80D806AA3D00600180184400C0001507C0D8260D001071
:20640000171E80D81704C0D83A88C510150B80D844008010150680D83A880D101692BD00A2
:206420004400800106903D00A0008018150700D81E883D10151100E03A880B003A8809E027
:2064400040B70801150380D8151080E0C4FFBF00150B80D844008000150780D8C4FFBF0093
:20646000151E00D8150680D8068F3E0044008000150980D80E5C3DA0440080043AC80594E7
:20648000150580D83A88290006583D003A8809B000760F013A880DA03A880F983A88091050
:2064A0003A880B18002E0E01263E3D10C4FFBFB5063C3D007404800004CC8C10150380D87F
:2064C00006DF3C00170880DC1705C0DC3A882100062F3F003A880BA83A880D103A8809E012
:2064E000803309013A882B1006633F0004078000065A3F00040800013AC88920170180D8E8
:206500003A98081106F33C004400000406473D003A880DB03A880B103A8809E00021090157
:206520003A882510170280D8900080101E2F01103A8823001704809004018010BA90041072
:206540003A8885901700001180E808010408C0003AC8851806383F003A880B803A880F00C5
:20656000840280013A8809E0C0C308013A882110170B80D80E1B8200150680D816B3C004C5
:206580001E3401883A882780170340DC1706C0D8170180D8C4FFFF8D3A88C7B81506C0D819
:2065A0001702C0D84C008010150880D83AB0C410150780D8062C00003A880BB83A8809A87D
:2065C000150500DA404709013A880BB83A8809E0150180D880C10801170180D8170500DAE8
:2065E0001E0200101707C0D826F201184400C08D160501A01702C0D83AB0E8A01708C0D85D
:206600003AB0281D260001A016288100170680D80500008A262941143A880BA83A880F00D7
:20662000840280013A8809E0C0C308013A882B103A880F00840280013A880B803A8809E04F
:206640002620C084C0C308013A880B983A880F00840280013A8809E03A882110C0C30801BD
:206660003A8827103A8823B83A880B903A8809A8405405013A880B803A8809A83A882D105B
:20668000404709013A880D983A880B903A8809E03A882910C04C09013A882F10170380103E
:2066A000040C00B226C43F103A880BB83A8809E0150100DA80C1080144008000170100DABF
:2066C00006CA3F00C0C308013A8821103A88271006E43F00170280D8D00080101E4B0010C0
:2066E000170680D81E0D3E103A880B903A8809E03A880F0044018001C0C308013A880B10A4
:206700003A8809A83A882510404709010E03BE001703C0D8440C800005008018170480D81D
:206720004400C01D440040143A880B903A8809E080C1080144008088150480D81E123F80A2
:20674000069F3D003A880B903A8809A8404709010ED13E103A880BA83A880F00840280017C
:206760003A8809E0C0C308013A882B10170480D8C4FF3F15170780D81E773F10170B80D887
:206780000E918100150680D806CA3E00170880D93A880BA83A8809E0002109013A882B1098
:2067A000069A3E00740480003A88071004D5CC18740480001503C0D8C4D58C1006A53D00A8
:2067C000170180D81E993E1034048000C4FFBF103A7084881E953E102CFC5F8C26933E88B1
:2067E000170580D8440000A54400400444008010150580D8068E3E00440080004400800410
:20680000150680D8151E80D806F43E00170480D844008010150480D8170780D81E573F1050
:206820003A880B903A8809A840540501040C0012170380D83A8829004400C015050000123F
:2068400006B03E003A8805A006553E003A880B803A880D983A8809E0803309013A88211035
:2068600006473F003AC8A514063E3E007404800004E68C10170880111709C011170100D93F
:206880003A880B88150E40DA150D80DAC0970D01150C80D83A882718CC03C0BDC4000004F7
:2068A000170D80DA170E40DA06923C00150700D806D33E001E030010170100DA4C0000428B
:2068C0001E9B3E403A8805180602000083FFBFB83A882F18CC3F80101C20801004E0BF107E
:2068E000180C8010C4FFFFB826F83F10069D3E00170AC0D826BC00181705C0D8C40C811054
:206900003A88A9A03A8885183A882718170880DC150580D8061A3E001703C0D8440C80003F
